:020000040800F2
:10000000900E0020CD000008DD040008D90400088F
:1000100000000000000000000000000000000000E0
:100020000000000000000000000000003D09000882
:100030000000000000000000DF0500085D0A000865
:10004000FD00000800000000FD000008FD000008A1
:10005000FD000008FD000008FD000008FD0000088C
:1000600000000000FD000008FD000008FD00000881
:10007000FD000008FD000008FD0000080000000071
:10008000FD000008FD000008FD000008FD0000085C
:10009000FD000008FD000008FD000008FD0000084C
:1000A000FD000008FD000008FD000008150B000819
:1000B000FD000008FD0000080348854600F05AF8DE
:1000C00000480047DD1D0008900E00200C4880F31A
:1000D00008880C480168090E0B4A914205D10B486B
:1000E0000B4901600B480C4901600C4880470C48E3
:1000F0000047FEE7FEE7FEE7FEE7FEE7FEE700005B
:10010000900E0020040000001F00000018100240A4
:10011000010000000000014000000000990A0008F2
:10012000B900000830B50B4601460020202201240A
:1001300009E00D46D5409D4205D31D469540491B1B
:100140002546954040191546521E002DF1DC30BD64
:10015000D2B201E00270401C491EFBD2704700225F
:10016000F6E710B513460A4604461946FFF7F0FFB6
:10017000204610BD064C0125064E05E0E36807CC7D
:100180002B430C3C98471034B442F7D3FFF798FF49
:10019000A4200008C420000810B501F051FE01F0B1
:1001A0006FFE01F089FE10BD1CB5114800900121C1
:1001B0006846017100218171032141710121C171E2
:1001C00069460920C00600F01DF80A4800906946FB
:1001D000094800F017F8074800906946074800F002
:1001E00011F8042000906946054800F00BF81CBD8A
:1001F000FF990000FFFF00000004004800080048CD
:10020000000C0048F0B50A4600210023002400BF7E
:100210003DE001258D402B4615681D402C469C4233
:1002200034D11579012D02D01579022D16D18568AA
:100230004F000326BE40B543856055794E00B5405A
:10024000866835438560858801268E40B543858064
:10025000858896798E40B6B23543858005684F0013
:100260000326BE40B543056015794E00B5400668CB
:1002700035430560C5684F000326BE40B543C560E1
:10028000D5794E00B540C6683543C560491C102974
:10029000BFD3F0BDF0B5002300244D07EE0E154688
:1002A000B5402B46CD10AE0005462035AD594E0762
:1002B000F70E0F26BE40B543CE10B60007462037D6
:1002C000BD51CD10AE003D46AD591D432C46CD105D
:1002D000AD003E467451F0BD0185704781617047A5
:1002E00010B501F08DFC10BD10B50446230001F0DF
:1002F00042FC09B61A062E42869E6E56B60000F0E3
:10030000CDF802215748FFF7E9FF01215548FFF7D3
:10031000E3FF04215348FFF7E1FF01210920C00654
:10032000FFF7DCFF9CE000F0B9F802214D48FFF731
:10033000D5FF01214B48FFF7D1FF04214948FFF7C2
:10034000CDFF01210920C006FFF7C6FF88E000F0BD
:10035000A5F802214348FFF7BFFF01214148FFF7FD
:10036000BDFF04213F48FFF7B7FF01210920C00668
:10037000FFF7B2FF74E000F091F802213948FFF76F
:10038000ABFF01213748FFF7A9FF04213548FFF7EC
:10039000A3FF01210920C006FFF7A0FF60E000F0E5
:1003A00063F8012109030920C006FFF797FF012127
:1003B00049032C48FFF790FF012189032948FFF7E3
:1003C0008DFF0121C9032748FFF788FF48E000F0AF
:1003D0004BF8012109030920C006FFF77FFF012127
:1003E00049032048FFF77AFF012189031D48FFF7E1
:1003F00075FF0121C9031B48FFF76EFF30E000F0D5
:1004000033F8012109030920C006FFF765FF012128
:1004100049031448FFF762FF012189031148FFF7E0
:100420005BFF0121C9030F48FFF756FF18E000F0FA
:100430001BF8012109030920C006FFF74DFF012128
:1004400049030848FFF74AFF012189030548FFF7E0
:1004500043FF0121C9030348FFF740FF00E000BF4D
:1004600000BF10BD0008004810B508210A48FFF77A
:1004700035FF02210848FFF72FFF01210648FFF74B
:100480002BFF04210448FFF729FF01210920C006A2
:10049000FFF722FF10BD00000008004810B508213A
:1004A0000C48FFF719FF012109030920C006FFF7D7
:1004B00013FF012149030748FFF70EFF01218903BC
:1004C0000448FFF70BFF0121C9030248FFF704FFAF
:1004D00010BD00000008004800BFFEE770470000A4
:1004E00000218278002A27D0184A03231B02D21841
:1004F00003789B109B00D15802789207D30EFF22FD
:100500009A400B469343194642789207120E03789D
:100510009B07DB0E9A4011430C4A03231B02D2189F
:1005200003789B109B00D1500278D306DB0E01228A
:100530009A40064B1A6007E00278D306DB0E0122D0
:100540009A40024B80331A607047000000E100E0DF
:1005500010B5002819DA1A4A03071B0F083B9B083D
:100560009B00D2588307DC0EFF23A3409A438B07DE
:100570001B0E8407E40EA3401A43114B0407240FFB
:10058000083CA408A4001A5118E00E4A03231B02D9
:10059000D21883089B00D2588307DC0EFF23A340A8
:1005A0009A438B071B0E8407E40EA3401A43054BA6
:1005B000032424021B198408A4001A5110BD000052
:1005C0001CED00E000E100E008B51B216846017069
:1005D0000021417001218170FFF782FF08BD704743
:1005E000002905D0054A52690243044B5A6104E0D0
:1005F000024A52698243014B5A617047001002401F
:10060000002905D0054A92690243044B9A6104E02F
:10061000024A92698243014B9A617047001002407E
:1006200010B501210F204004FFF7DAFF10BD0000D4
:10063000FEB504460025002600200190009000270A
:10064000504840680C2108400546002D04D0042D78
:1006500005D0082D28D105E04B48206027E04A4806
:10066000206024E0474840680F218904084006467E
:10067000444840680121090408400190B00C861CE0
:100680000198002803D14148704320600BE03D48A9
:10069000C06A0007000F401C00903B480099FFF71C
:1006A00041FD7043206002E03748206000BF00BF7A
:1006B00034484068F021084005462D093448475D1C
:1006C0002068F84060602F48406807210902084010
:1006D00005462D0A2E48475D6068F840A06029480D
:1006E000006BFF2101310840884202D02948E060B8
:1006F0000DE024484068012189030840884203D066
:10070000A0684008E06002E0A0688008E0601D4842
:10071000006B40210840402802D01F48206102E0C1
:100720000120C00320611748006B102108401028E9
:1007300002D01548606101E0206860611148006BDB
:100740008007800F002802D1A068A06119E00D4841
:10075000006B8007800F012802D12068A06110E0A3
:100760000848006B8007800F022802D18003A06137
:1007700007E00448006B8007800F032801D102487E
:10078000A061FEBD0010024000127A0000093D0089
:1007900000000020809FD5001280000010B50446A4
:1007A000230001F0E8F90A45060D141B2229303711
:1007B0003E450120FFF798FD072000F093F838E050
:1007C0000120FFF791FD082000F08CF831E00120B6
:1007D000FFF78AFD092000F085F82AE00220FFF7E4
:1007E00083FD012000F028F823E00220FFF77CFDC4
:1007F000022000F021F81CE00220FFF775FD032025
:1008000000F01AF815E00320FFF76EFD042000F059
:100810003FF80EE00320FFF767FD052000F038F8F1
:1008200007E00320FFF760FD062000F031F800E04C
:1008300000BF00BF10BD000010B50446012C04D05D
:10084000022C0ED0032C1ED117E0012109030F4802
:10085000FFF744FD0121C9020920C006FFF73EFD54
:1008600012E0012109030948FFF738FD0121C902FF
:100870000920C006FFF730FD06E001210903034807
:10088000FFF72AFD00E000BF00BF10BD00040048D4
:1008900010B50446042C04D0052C0DD0062C1CD118
:1008A00015E0012149020E48FFF718FDFF21013133
:1008B0000B48FFF713FD11E0012149020848FFF73B
:1008C0000DFDFF2101310648FFF706FD06E001217D
:1008D00049020348FFF700FD00E000BF00BF10BD64
:1008E0000004004810B50446072C04D0082C0ED094
:1008F000092C1ED117E00121C9020F48FFF7EEFCB9
:100900000121C9020920C006FFF7E8FC12E001211D
:10091000C9020948FFF7E2FC0121C9020920C0060B
:10092000FFF7DAFC06E00121C9020348FFF7D4FC17
:1009300000E000BF00BF10BD000400487047000089
:100940000CB5002001900090314800680121090495
:1009500008432F49086000BF2D4800680121490461
:10096000084000900198401C01900098002804D194
:100970000521090201988842EED12548006801212D
:1009800049040840002802D00120009001E0002026
:1009900000900098012839D111201E4908601C4898
:1009A00040681B49486008464068486008464068FF
:1009B0003F210904884316494860084640681121D0
:1009C00009040843124948600846006801210906E5
:1009D00008430F49086000BF0D480068012149061F
:1009E00008400028F8D00A4840688008800008497C
:1009F000486008464068022108430549486000BF36
:100A0000034840680C2108400828F9D10CBD0000BB
:100A1000001002400020024010B57D21C9000C48A2
:100A20000068FFF77FFB0446601E0A49884200D930
:100A30000CE0601E084948610321081FFFF788FD8C
:100A40000020054988610720086100BF10BD000033
:100A500010000020FFFFFF0000E000E00B480068EE
:100A60000B49884205D209480068401C07490860C4
:100A700002E000200549086006480088002804D0EC
:100A800004480088401E0349088070474400002045
:100A9000FFFF8F004800002010B51B4800680121AF
:100AA0000843194908600846406818490840164933
:100AB000486008460068164908401349086008461F
:100AC00000680121890488430F490860084640688E
:100AD0003F21090488430C4948600846C06A000960
:100AE0000001C8620846006BFF2154318843064963
:100AF00008630846406B4008400048630020886057
:100B0000FFF71EFF10BD0000001002400CB8FFF8F8
:100B1000FFFFF6FE10B50C490C4800F076F80028EF
:100B200006D00B4801F0F6F90749084800F058F8DC
:100B30000849064800F069F8002803D00549034831
:100B400000F04EF810BD000005010500003801401E
:100B5000540800200601060000B589B001214804B0
:100B6000FFF73EFD01218803FFF74AFD012209211D
:100B7000C806FFF78FFB01220A210920C006FFF7F4
:100B800089FB032040020790022108A8017003217D
:100B90004170002181700121C17007A90920C006A0
:100BA000FFF730FBE120400201900020029003900B
:100BB000049006900C20059001A9074800F06EF8FB
:100BC00001220649044800F047F80121024800F0DC
:100BD00010F809B000BD0000003801400501050013
:100BE00010B5002300220B0C01249C402246026217
:100BF00010BD002904D0026801231A43026003E0FB
:100C00000268520852000260704770B502460B46F7
:100C100000240021002500201E04350ED9B2012633
:100C20008E403146012D02D11668314006E0022D7A
:100C300002D15668314001E0966831401C0C012613
:100C4000A6403446D6693440002903D0002C01D098
:100C5000012000E0002070BDF8B503460024002606
:100C600000960025002018460E04340ECEB20096E1
:100C70000127009EB7403D46022C01D1001D02E035
:100C8000032C00D10830002A03D006682E430660EA
:100C900002E00668AE430660F8BD0000F0B589B01A
:100CA00005460E4600240020089000BF00BF2868BB
:100CB0004008400028606C680321090320468843EF
:100CC0000446B06804436C602C682F480440F16807
:100CD000706808433169084304432C60AC68032101
:100CE000090220468843044670690443AC606846A4
:100CF000FFF79EFC2548854202D10698089001E046
:100D00000298089028680121C9030840002809D0EA
:100D1000326851001923089A5A431046FFF702FA25
:100D2000074608E0326891001923089A5A43104692
:100D3000FFF7F8F9074664213846FFF7F3F9040195
:100D4000200964214843381A079028680121C90303
:100D5000084000280AD00799C900084632306421AB
:100D6000FFF7E0F94007400F044309E00799090144
:100D7000084632306421FFF7D5F90007000F04431D
:100D8000AC8109B0F0BD0000F3E9FFFF003801407D
:100D900070B505460C462B0000F0EDFE1FF289955C
:100DA000A1ADB9C5D1DDF6F0111D2935414D59650B
:100DB000717DEFEEEDECEBEAE9E8E7E6F200002CFE
:100DC00006D00220FFF790FA012000F02BFB01E093
:100DD00000F0A6F969E1002C06D00220FFF784FAA2
:100DE000022000F01FFB01E000F09AF95DE1002C09
:100DF00006D00220FFF778FA032000F013FB01E091
:100E000000F08EF951E1002C06D00220FFF76CFAB9
:100E1000042000F007FB01E000F082F945E1002C1E
:100E200006D00220FFF760FA052000F0FBFA01E08F
:100E300000F076F939E1002C06D00220FFF754FAD1
:100E4000062000F093FC01E000F0C0F92DE1002C39
:100E500006D00220FFF748FA072000F087FC01E0E7
:100E600000F0B4F921E1002C06D00220FFF73CFA93
:100E7000082000F07BFC01E000F0A8F915E1002C4F
:100E800006D00220FFF730FA092000F06FFC01E0E5
:100E900000F09CF909E1002C06D00220FFF724FAAB
:100EA0000A2000F063FC01E000F090F9FDE0002C66
:100EB00006D00120FFF718FA152000F049FB01E0E9
:100EC00000F04CF9F1E0002C06D00120FFF70CFAFD
:100ED000162000F03DFB01E000F040F9E5E0002CB9
:100EE00006D00120FFF700FA172000F031FB01E0E7
:100EF00000F034F9D9E0002C06D00120FFF7F4F916
:100F0000182000F025FB01E000F028F9CDE0002CCE
:100F100006D00120FFF7E8F9192000F019FB01E0E5
:100F200000F01CF9C1E0002C06D00120FFF7DCF92D
:100F30001A2000F09BFB01E000F02CF9B5E0002C3A
:100F400006D00120FFF7D0F91B2000F08FFB01E055
:100F500000F020F9A9E0002C13D00120FFF7C4F91C
:100F60001C2000F083FB0EE092E085E078E06BE06F
:100F70005EE051E044E037E02AE01DE010E003E0ED
:100F800092E000F007F990E0002C06D00120FFF776
:100F9000ABF91D2000F06AFB01E000F0FBF884E0F3
:100FA000002C06D00120FFF79FF91E2000F05EFB09
:100FB00001E000F0EFF878E0002C06D00320FFF706
:100FC00093F90B2000F020F901E000F071F86CE0DB
:100FD000002C06D00320FFF787F90C2000F014F94D
:100FE00001E000F065F860E0002C06D00320FFF778
:100FF0007BF90D2000F008F901E000F059F854E009
:10100000002C06D00320FFF76FF90E2000F0FCF84B
:1010100001E000F04DF848E0002C06D00320FFF777
:1010200063F90F2000F0F0F801E000F041F83CE037
:10103000002C06D00320FFF757F9102000F05EF9CE
:1010400001E000F04DF830E0002C06D00320FFF75F
:101050004BF9112000F052F901E000F041F824E0D2
:10106000002C06D00320FFF73FF9122000F046F9CC
:1010700001E000F035F818E0002C06D00320FFF75F
:1010800033F9132000F03AF901E000F029F80CE000
:10109000002C06D00320FFF727F9142000F02EF9CA
:1010A00001E000F01DF800E000BF00BF70BD0000CF
:1010B00010B580210948FFF711F910210748FFF703
:1010C0000BF908210548FFF707F920210348FFF72E
:1010D00005F940210148FFF7FFF810BD0004004862
:1010E00010B50121C9030920C006FFF7F7F8012157
:1010F00009030948FFF7F0F804210848FFF7ECF866
:101100000121C9020448FFF7E9F8012189020248D8
:10111000FFF7E2F810BD000000080048000C00488E
:1011200010B504210920C006FFF7D8F801214902B3
:101130000948FFF7D1F8FF2101310748FFF7CCF844
:10114000FF2101310920C006FFF7C8F80821092056
:10115000C006FFF7C1F810BD0008004810B5102107
:101160000920C006FFF7BAF880210920C006FFF762
:10117000B3F810210648FFF7AFF840210920C00658
:10118000FFF7ACF820210920C006FFF7A5F810BD35
:101190000008004810B5012189020A48FFF79EF8AF
:1011A00001210848FFF798F820210748FFF794F835
:1011B00002210448FFF792F804210248FFF78CF857
:1011C00010BD0000000400480008004810B50121CF
:1011D00049030B48FFF782F840210A48FFF77CF8E3
:1011E00080210848FFF778F80121C9030448FFF778
:1011F00075F8012189030248FFF76EF810BD000061
:10120000000400480008004810B5044620460B388A
:10121000030000F0B0FC05432E0419586D00802136
:101220003548FFF75BF810213348FFF757F80821DE
:101230003148FFF751F820212F48FFF74FF84021A0
:101240002D48FFF74BF854E080212B48FFF746F874
:1012500010212948FFF742F808212748FFF73EF8F8
:1012600020212548FFF73AF840212348FFF734F8BA
:101270003FE080212048FFF731F810211E48FFF79A
:101280002BF808211C48FFF729F820211A48FFF7FE
:1012900023F840211848FFF71FF82AE0802116485C
:1012A000FFF71CF810211448FFF716F80821124820
:1012B000FFF714F820211048FFF70EF840210E48E0
:1012C000FFF70CF815E080210B48FFF705F8102117
:1012D0000948FFF701F808210748FEF7FDFF202124
:1012E0000548FEF7FBFF40210348FEF7F5FF00E04D
:1012F00000BF00BF10BD00000004004810B5044648
:1013000020461038030000F036FC055238041E6CED
:1013100086000121C9030920C006FEF7DFFF012175
:1013200009033E48FEF7DAFF04213D48FEF7D4FFEB
:101330000121C9023948FEF7D1FF0121890237484E
:10134000FEF7CCFF68E00121C9030920C006FEF7C3
:10135000C5FF012109033148FEF7C0FF04213048D1
:10136000FEF7BCFF0121C9022C48FEF7B7FF01219F
:1013700089022A48FEF7B0FF4EE00121C903092087
:10138000C006FEF7ABFF012109032448FEF7A4FFC6
:1013900004212348FEF7A2FF0121C9021F48FEF7DE
:1013A0009BFF012189021D48FEF796FF34E00121D1
:1013B000C9030920C006FEF791FF01210903174860
:1013C000FEF78AFF04211648FEF788FF0121C902B3
:1013D0001248FEF781FF012189021048FEF77EFFC7
:1013E0001AE00121C9030920C006FEF775FF01219B
:1013F00009030A48FEF770FF04210948FEF76CFF55
:101400000121C9020548FEF769FF0121890203484D
:10141000FEF762FF00E000BF00BF10BD00080048FB
:10142000000C004810B50446230000F0A4FB068B16
:10143000553A041F708B04210920C006FEF74EFFA9
:10144000012149024148FEF749FFFF2101313F4890
:10145000FEF742FFFF2101310920C006FEF73EFFE3
:1014600008210920C006FEF739FF6CE0042109209D
:10147000C006FEF733FF012149023448FEF72EFF74
:10148000FF2101313148FEF729FFFF2101310920F9
:10149000C006FEF723FF08210920C006FEF71CFF47
:1014A00051E004210920C006FEF718FF012149027E
:1014B0002648FEF711FFFF2101312448FEF70EFFF9
:1014C000FF2101310920C006FEF706FF082109208F
:1014D000C006FEF701FF36E004210920C006FEF732
:1014E000FDFE012149021948FEF7F6FEFF210131F8
:1014F0001648FEF7F3FEFF2101310920C006FEF772
:10150000EBFE08210920C006FEF7E8FE1BE00421DF
:101510000920C006FEF7E0FE012149020B48FEF754
:10152000DBFEFF2101310948FEF7D6FEFF21013124
:101530000920C006FEF7D2FE08210920C006FEF7EA
:10154000CBFE00E000BF00BF10BD00000008004857
:1015500010B5044620461538030000F00CFB054F7B
:1015600036041D68810010210920C006FEF7B6FE72
:1015700080210920C006FEF7B1FE10213A48FEF78F
:10158000ABFE40210920C006FEF7A8FE202109205D
:10159000C006FEF7A3FE64E010210920C006FEF796
:1015A0009DFE80210920C006FEF798FE10212E48DE
:1015B000FEF794FE40210920C006FEF78FFE202191
:1015C0000920C006FEF788FE4BE010210920C00666
:1015D000FEF784FE80210920C006FEF77DFE102163
:1015E0002148FEF77BFE40210920C006FEF774FE6D
:1015F00020210920C006FEF76FFE32E010210920ED
:10160000C006FEF76BFE80210920C006FEF764FECF
:1016100010211548FEF762FE40210920C006FEF7A2
:101620005BFE20210920C006FEF758FE19E01021BC
:101630000920C006FEF750FE80210920C006FEF7F3
:101640004BFE10210848FEF747FE40210920C00646
:10165000FEF744FE20210920C006FEF73DFE00E013
:1016600000BF00BF10BD00000008004810B50446D0
:1016700020461A38030000F07EFA054630041A5C52
:101680007200012189023748FEF728FE0121354802
:10169000FEF724FE20213448FEF71EFE02213148C9
:1016A000FEF71CFE04212F48FEF718FE58E001212A
:1016B00089022C48FEF712FE01212A48FEF70EFE91
:1016C00020212948FEF70AFE02212648FEF706FEE1
:1016D00004212448FEF700FE42E00121890221484E
:1016E000FEF7FCFD01211F48FEF7F6FD20211E48F4
:1016F000FEF7F4FD02211B48FEF7EEFD0421194818
:10170000FEF7EAFD2CE0012189021648FEF7E6FD0E
:1017100001211448FEF7E0FD20211348FEF7DEFD0D
:1017200002211048FEF7D8FD04210E48FEF7D6FD31
:1017300016E0012189020B48FEF7CEFD0121094880
:10174000FEF7CAFD20210848FEF7C6FD0221054824
:10175000FEF7C4FD04210348FEF7BEFD00E000BF14
:1017600000BF10BD000400480008004810B5044642
:10177000A01F030000F0FFF9054C34041C647C003A
:10178000012149033C48FEF7A9FD40213B48FEF7F3
:10179000A5FD80213948FEF79FFD0121C903364888
:1017A000FEF79CFD012189033348FEF797FD60E0B9
:1017B000012149033048FEF791FD40212F48FEF7F3
:1017C0008DFD80212D48FEF789FD0121C9032A489E
:1017D000FEF784FD012189032748FEF77DFD48E0DF
:1017E000012149032448FEF779FD40212348FEF7F3
:1017F00073FD80212148FEF771FD0121C9031E48B8
:10180000FEF76AFD012189031B48FEF765FD30E004
:10181000012149031848FEF761FD40211748FEF7F2
:101820005BFD80211548FEF759FD0121C9031248CF
:10183000FEF752FD012189030F48FEF74FFD18E026
:10184000012149030C48FEF747FD40210B48FEF7F4
:1018500043FD80210948FEF73FFD0121C9030648E9
:10186000FEF73CFD012189030348FEF735FD00E04A
:1018700000BF00BF10BD0000000400480008004881
:1018800010B535484078002800D110BD3348018894
:10189000334A881A91422CD006DC324808180028B6
:1018A00009D001284BD115E0FF38013800282CD091
:1018B000012844D138E0294800792B4908700120DB
:1018C0002A4908702A480078002802D101202849B6
:1018D000087035E021480079234908700020234929
:1018E000087023480078002802D1012020490870A0
:1018F00026E01A4800791F4908701F480078002820
:1019000002D101201C4908701AE0144800791B49D3
:10191000087001201A4908701A480078002802D17E
:101920000120184908700BE002201549087015487D
:101930000078002802D101201249087000E000BFA1
:1019400000BF812189000548FEF709FC02480021FB
:10195000018000BF99E700002E0000207C080020D5
:1019600001F20000FF0EFFFF3800002039000020C8
:101970003A0000203B0000203C0000203D000020F9
:101980003E0000203F00002008B5002000906A487B
:101990006A490880CDE06A484078012800D1C9E052
:1019A00066480088002803D1012065494870C1E0DD
:1019B0000121684600F0C1FA002800D1BAE0604871
:1019C0000078030000F0D7F805041528496FA3003C
:1019D00068460078552808D159480078401C584975
:1019E000087000205749088002E0012054494870DF
:1019F0009EE068460078AA2808D151480078401C2B
:101A00004F49087000204F49088004E001204C49EC
:101A10004870002008708BE068460078F0280ADDE6
:101A20006846007800024849088045480078401C14
:101A30004349087010E0812189004448FEF78FFB7C
:101A4000002041490880424908803E490880012021
:101A50003B494870002008706AE03B4800886946AE
:101A600009780843384908800846008837490880C3
:101A700033480078401C32490870344800880028F8
:101A800010D1812189003148FEF769FB00202E49E1
:101A900008802F4908802B49088001202849487078
:101AA0000020087044E06846007800280FDD684692
:101AB0000078CC280BD0684601782248028800883C
:101AC000401C204B18802148001D81541EE06846B0
:101AD0000078CC280BD100201B4908801C490880C5
:101AE0001849088016490870012048700EE08121CD
:101AF00089001648FEF733FB00201349088011497E
:101B0000088001200E4948700020087010E08121F3
:101B100089000E48FEF723FB00200B4908800C4982
:101B2000088008490880064908700120487000BFF5
:101B300000BF30E700BF08BDB80B00004800002020
:101B40002E00002036000020320000207C080020FB
:101B50003400002000B5A1B0802101A8FEF7FFFAF3
:101B6000AA2168460171BB214171022101A800F040
:101B7000FBF921B000BD30B47446641E2578641CA6
:101B8000AB4204D3635D5B00E31830BC18471D46CD
:101B9000F8E702E008C8121F08C1002AFAD170470E
:101BA0007047002001E001C1121F002AFBD17047DD
:101BB00010B504467D21C9006143084600F001F8D4
:101BC00010BD70B504460025302161430846072149
:101BD000FEF7A8FA064600BF681C0546B04200D9C9
:101BE00070BDF9E710B5FEF71BFDFEF7DDFA00F05A
:101BF00007F800F033F800F073F800F0B1F810BD0A
:101C000010B508211448FEF767FB02211248FEF7C1
:101C100063FB01211048FEF75FFB04210E48FEF72D
:101C20005DFB01210920C006FEF756FB01210903D7
:101C30000920C006FEF750FB012149030648FEF7C4
:101C40004BFB012189030448FEF748FB0121C9032E
:101C50000148FEF741FB10BD0008004810B5042103
:101C60000920C006FEF73AFB012149021A48FEF797
:101C700033FBFF2101311848FEF72EFBFF21013114
:101C80000920C006FEF72AFB08210920C006FEF73E
:101C900023FB012149031148FEF720FB40210E4898
:101CA000FEF71AFB80210C48FEF716FB0121C90341
:101CB0000A48FEF713FB012189030848FEF70CFBD5
:101CC000012109030548FEF709FB0121C90209208A
:101CD000C006FEF703FB10BD0008004800040048E2
:101CE00010B580211B48FEF7F9FA10211948FEF7BC
:101CF000F3FA08211748FEF7EFFA20211548FEF7FE
:101D0000EDFA40211348FEF7E7FA0121C903092043
:101D1000C006FEF7E3FA012109030F48FEF7DCFADB
:101D200004210E48FEF7D8FA0121C9020A48FEF73D
:101D3000D5FA012189020848FEF7CEFA01214902AD
:101D40000448FEF7CBFAFF2101310248FEF7C6FA3C
:101D500010BD00000004004800080048000C0048C6
:101D600010B510210920C006FEF7B8FA802109201D
:101D7000C006FEF7B1FA10211648FEF7ADFA402171
:101D80000920C006FEF7AAFA20210920C006FEF7A6
:101D9000A3FA012189021048FEF7A0FA01210E489A
:101DA000FEF79AFA20210B48FEF796FA02210A481C
:101DB000FEF794FA04210848FEF78EFA0121C902C1
:101DC0000548FEF78BFA0121C9020920C006FEF77B
:101DD00085FA10BD0008004800040048FEF71CFE0C
:101DE000FFF700FF00F046F901201449087014E0E5
:101DF000012112480078FEF7CBFFC820FFF7D8FE7C
:101E000000210E480078FEF7C3FF3220FFF7D0FE16
:101E10000A480078401C09490870084800781F28C3
:101E2000E6DBFEF75DFA08E0FFF7AEFDFFF728FD01
:101E3000FEF7B2F90520FFF7C4FEF5E740000020E9
:101E400010B50C480078012812D10B480078002802
:101E50000EDD094800781F280ADA0848017806488C
:101E60000078FEF795FF002002490870FFF772FE28
:101E700010BD00003A00002038000020390000208A
:101E800010B50B480078012810D10A4800780A28BC
:101E90000CDA08480078002808DD06480078FEF7CC
:101EA0007DFC002002490870FFF754FE10BD0000C1
:101EB0003C0000203B00002010B5134800780128AA
:101EC00020D112480078012811D11148007800284B
:101ED00018DD0F480078092814DA0D480078FEF75D
:101EE00003FA002008490870FFF734FE0AE00748AB
:101EF0000078022806D1FEF7F3F9002002490870A5
:101F0000FFF728FE10BD00003F0000203E0000202B
:101F10003D00002030B504460025ED430AE000F006
:101F200099F80546681C002800D104E0E9B2606811
:101F300000F06AF8F3E700BF30BDF8B504460D467F
:101F400026460AE000F020F80746781C002800D159
:101F500005E03770761C6D1E00BF002DF2D100BF6A
:101F6000301B00900098F8BD70B503460C46002663
:101F70001D4604E0287800F085F86D1C641E002CD6
:101F8000F8D1EE1A304670BD0020C0430849498898
:101F9000074A128891420AD005494988054A505C8F
:101FA00003494988491C8905890D014A51807047B8
:101FB0004C0400204C00002010B50D4C0D480E497B
:101FC00048600E488860084604600121890209487B
:101FD000FEF7C5F800200A490880488001218902DF
:101FE0000648FEF7BCF8002006490880488010BD6E
:101FF000240000204C000020540800205004002041
:102000004C040020500800200122920282181288FD
:1020100081540122920282181288521C9205920D5C
:1020200001239B02C3181A8001229202821812888F
:1020300001239B02C3185B889A420AD101229202B3
:1020400082185288521C9205920D01239B02C318DC
:102050005A8070470020C0430549C96920221140B9
:10206000002903D0024920318988C8B27047000096
:102070000038014010B5FEF76FFDFEF7A5FAFFF737
:102080009BFF10BD014600BF0548C069802210407B
:102090000028F9D00248203001810120704700005B
:1020A00000380140C4200008000000204C0000005F
:1020B000921B0008102100084C000020440E000074
:1020C000A21B000800000000010203040102030437
:1020D00006070809006CDC02000000000000000098
:1020E0000102030406070809003801401B00000034
:1020F00000000000000000000000000000000000E0
:10210000000000000000000000000000B80B00000C
:04000005080000B936
:00000001FF
