:020000040800F2
:10000000880E0020CD000008D5040008D1040008A7
:1000100000000000000000000000000000000000E0
:10002000000000000000000000000000350900088A
:100030000000000000000000D7050008550A000875
:10004000FD00000800000000FD000008FD000008A1
:10005000FD000008FD000008FD000008FD0000088C
:1000600000000000FD000008FD000008FD00000881
:10007000FD000008FD000008FD0000080000000071
:10008000FD000008FD000008FD000008FD0000085C
:10009000FD000008FD000008FD000008FD0000084C
:1000A000FD000008FD000008FD0000080D0B000821
:1000B000FD000008FD0000080348854600F05AF8DE
:1000C00000480047991D0008880E00200C4880F366
:1000D00008880C480168090E0B4A914205D10B486B
:1000E0000B4901600B480C4901600C4880470C48E3
:1000F0000047FEE7FEE7FEE7FEE7FEE7FEE700005B
:10010000880E0020040000001F00000018100240AC
:10011000010000000000014000000000910A0008FA
:10012000B900000830B50B4601460020202201240A
:1001300009E00D46D5409D4205D31D469540491B1B
:100140002546954040191546521E002DF1DC30BD64
:10015000D2B201E00270401C491EFBD2704700225F
:10016000F6E710B513460A4604461946FFF7F0FFB6
:10017000204610BD064C0125064E05E0E36807CC7D
:100180002B430C3C98471034B442F7D3FFF798FF49
:10019000FC1F00081C20000810B501F00FFE01F044
:1001A0002DFE01F047FE10BD1CB511480090012145
:1001B0006846017100218171032141710121C171E2
:1001C00069460920C00600F01DF80A4800906946FB
:1001D000094800F017F8074800906946074800F002
:1001E00011F8042000906946054800F00BF81CBD8A
:1001F000FF990000FFFF00000004004800080048CD
:10020000000C0048F0B50A4600210023002400BF7E
:100210003DE001258D402B4615681D402C469C4233
:1002200034D11579012D02D01579022D16D18568AA
:100230004F000326BE40B543856055794E00B5405A
:10024000866835438560858801268E40B543858064
:10025000858896798E40B6B23543858005684F0013
:100260000326BE40B543056015794E00B5400668CB
:1002700035430560C5684F000326BE40B543C560E1
:10028000D5794E00B540C6683543C560491C102974
:10029000BFD3F0BDF0B5002300244D07EE0E154688
:1002A000B5402B46CD10AE0005462035AD594E0762
:1002B000F70E0F26BE40B543CE10B60007462037D6
:1002C000BD51CD10AE003D46AD591D432C46CD105D
:1002D000AD003E467451F0BD0185704781617047A5
:1002E00010B50446230001F02CFC09B62E061A4274
:1002F000869E6E56B60000F0CDF802215748FFF7F3
:10030000EDFF01215548FFF7E7FF04215348FFF7B0
:10031000E5FF01210920C006FFF7E0FF9CE000F0A7
:10032000B9F802214D48FFF7D9FF01214B48FFF7EB
:10033000D5FF04214948FFF7D1FF01210920C0065C
:10034000FFF7CAFF88E000F0A5F802214348FFF755
:10035000C3FF01214148FFF7C1FF04213F48FFF7D8
:10036000BBFF01210920C006FFF7B6FF74E000F0D3
:1003700091F802213948FFF7AFFF01213748FFF715
:10038000ADFF04213548FFF7A7FF01210920C00672
:10039000FFF7A4FF60E000F063F8012109030920E2
:1003A000C006FFF79BFF012149032C48FFF794FF8C
:1003B000012189032948FFF791FF0121C90327483B
:1003C000FFF78CFF48E000F04BF8012109030920FA
:1003D000C006FFF783FF012149032048FFF77EFF96
:1003E000012189031D48FFF779FF0121C9031B483B
:1003F000FFF772FF30E000F033F801210903092014
:10040000C006FFF769FF012149031448FFF766FFA3
:10041000012189031148FFF75FFF0121C9030F483C
:10042000FFF75AFF18E000F01BF80121090309202B
:10043000C006FFF751FF012149030848FFF74EFFAF
:10044000012189030548FFF747FF0121C90303483C
:10045000FFF744FF00E000BF00BF10BD00080048E8
:1004600010B508210A48FFF739FF02210848FFF7B5
:1004700033FF01210648FFF72FFF04210448FFF74F
:100480002DFF01210920C006FFF726FF10BD000047
:100490000008004810B508210C48FFF71DFF012196
:1004A00009030920C006FFF717FF01214903074888
:1004B000FFF712FF012189030448FFF70FFF012115
:1004C000C9030248FFF708FF10BD000000080048FC
:1004D00000BFFEE77047000000218278002A27D085
:1004E000184A03231B02D21803789B109B00D15893
:1004F00002789207D30EFF229A400B469343194687
:1005000042789207120E03789B07DB0E9A40114344
:100510000C4A03231B02D21803789B109B00D15076
:100520000278D306DB0E01229A40064B1A6007E0E0
:100530000278D306DB0E01229A40024B80331A6008
:100540007047000000E100E010B5002819DA1A4AEF
:1005500003071B0F083B9B089B00D2588307DC0E48
:10056000FF23A3409A438B071B0E8407E40EA3408E
:100570001A43114B0407240F083CA408A4001A5185
:1005800018E00E4A03231B02D21883089B00D2589E
:100590008307DC0EFF23A3409A438B071B0E8407BF
:1005A000E40EA3401A43054B032424021B198408BC
:1005B000A4001A5110BD00001CED00E000E100E0B5
:1005C00008B51B216846017000214170012181702E
:1005D000FFF782FF08BD7047002905D0054A526920
:1005E0000243044B5A6104E0024A52698243014BC0
:1005F0005A61704700100240002905D0054A9269EF
:100600000243044B9A6104E0024A92698243014B1F
:100610009A6170470010024010B501210F2040047C
:10062000FFF7DAFF10BD0000FEB5044600250026E6
:100630000020019000900027504840680C2108409D
:100640000546002D04D0042D05D0082D28D105E045
:100650004B48206027E04A48206024E04748406833
:100660000F218904084006464448406801210904D6
:1006700008400190B00C861C0198002803D1414825
:10068000704320600BE03D48C06A0007000F401C2B
:1006900000903B480099FFF745FD7043206002E061
:1006A0003748206000BF00BF34484068F021084050
:1006B00005462D093448475D2068F84060602F48A2
:1006C000406807210902084005462D0A2E48475D6B
:1006D0006068F840A0602948006BFF2101310840A4
:1006E000884202D02948E0600DE02448406801219A
:1006F00089030840884203D0A0684008E06002E017
:10070000A0688008E0601D48006B40210840402838
:1007100002D01F48206102E00120C0032061174879
:10072000006B10210840102802D01548606101E0DC
:10073000206860611148006B8007800F002802D19B
:10074000A068A06119E00D48006B8007800F0128A8
:1007500002D12068A06110E00848006B8007800F7C
:10076000022802D18003A06107E00448006B8007E3
:10077000800F032801D10248A061FEBD0010024095
:1007800000127A0000093D0000000020809FD50083
:100790001280000010B50446230001F0D2F90A458A
:1007A00030373E060D141B2229450120FFF798FD26
:1007B000012000F03DF838E00120FFF791FD022014
:1007C00000F036F831E00120FFF78AFD032000F049
:1007D0002FF82AE00220FFF783FD042000F054F8F0
:1007E00023E00220FFF77CFD052000F04DF81CE01F
:1007F0000220FFF775FD062000F046F815E0032003
:10080000FFF76EFD072000F069F80EE00320FFF708
:1008100067FD082000F062F807E00320FFF760FDA5
:10082000092000F05BF800E000BF00BF10BD000031
:1008300010B50446012C04D0022C0ED0032C1ED17E
:1008400017E0012109030F48FFF748FD0121C90204
:100850000920C006FFF742FD12E001210903094803
:10086000FFF73CFD0121C9020920C006FFF734FD56
:1008700006E0012109030348FFF72EFD00E000BF59
:1008800000BF10BD0004004810B50446042C04D07D
:10089000052C0DD0062C1CD115E0012149020E4873
:1008A000FFF71CFDFF2101310B48FFF717FD11E099
:1008B000012149020848FFF711FDFF2101310648D7
:1008C000FFF70AFD06E0012149020348FFF704FD96
:1008D00000E000BF00BF10BD0004004810B5044692
:1008E000072C04D0082C0ED0092C1ED117E00121B2
:1008F000C9020F48FFF7F2FC0121C9020920C00616
:10090000FFF7ECFC12E00121C9020948FFF7E6FC01
:100910000121C9020920C006FFF7DEFC06E0012123
:10092000C9020348FFF7D8FC00E000BF00BF10BDBC
:1009300000040048704700000CB5002001900090B2
:10094000314800680121090408432F49086000BFAD
:100950002D48006801214904084000900198401C7E
:1009600001900098002804D10521090201988842CD
:10097000EED125480068012149040840002802D032
:100980000120009001E0002000900098012839D15A
:1009900011201E4908601C4840681B4948600846F1
:1009A00040684860084640683F210904884316496A
:1009B000486008464068112109040843124948600C
:1009C000084600680121090608430F49086000BF76
:1009D0000D4800680121490608400028F8D00A485F
:1009E0004068800880000849486008464068022145
:1009F00008430549486000BF034840680C2108408F
:100A00000828F9D10CBD000000100240002002406F
:100A100010B57D21C9000C480068FFF783FB044630
:100A2000601E0A49884200D90CE0601E08494861EE
:100A30000321081FFFF788FD002005498861072072
:100A4000086100BF10BD000010000020FFFFFF0084
:100A500000E000E00B4800680B49884205D20948D5
:100A60000068401C0749086002E000200549086052
:100A700006480088002804D004480088401E034926
:100A80000880704740000020FFFF8F0044000020D6
:100A900010B51B4800680121084319490860084641
:100AA00040681849084016494860084600681649D9
:100AB00008401349086008460068012189048843FA
:100AC0000F490860084640683F21090488430C49E3
:100AD00048600846C06A00090001C8620846006B09
:100AE000FF2154318843064908630846406B40089B
:100AF0004000486300208860FFF71EFF10BD000023
:100B0000001002400CB8FFF8FFFFF6FE10B50C49CC
:100B10000C4800F076F8002806D00B4801F0A6F942
:100B20000749084800F058F80849064800F069F8F5
:100B3000002803D00549034800F04EF810BD00001E
:100B4000050105000038014050080020060106009C
:100B500000B589B001214804FFF73EFD012188035B
:100B6000FFF74AFD01220921C806FFF793FB012286
:100B70000A210920C006FFF78DFB032040020790E1
:100B8000022108A801700321417000218170012118
:100B9000C17007A90920C006FFF734FBE12040021D
:100BA0000190002002900390049006900C20059084
:100BB00001A9074800F06EF801220649044800F038
:100BC00047F80121024800F010F809B000BD00000C
:100BD000003801400501050010B5002300220B0C70
:100BE00001249C402246026210BD002904D0026804
:100BF00001231A43026003E00268520852000260B7
:100C0000704770B502460B460024002100250020E5
:100C10001E04350ED9B201268E403146012D02D177
:100C20001668314006E0022D02D15668314001E0DD
:100C3000966831401C0C0126A6403446D6693440E3
:100C4000002903D0002C01D0012000E0002070BD5D
:100C5000F8B503460024002600960025002018461B
:100C60000E04340ECEB200960127009EB7403D46DA
:100C7000022C01D1001D02E0032C00D10830002A13
:100C800003D006682E43066002E00668AE430660A5
:100C9000F8BD0000F0B589B005460E4600240020DE
:100CA000089000BF00BF28684008400028606C68BA
:100CB00003210903204688430446B06804436C605E
:100CC0002C682F480440F168706808433169084374
:100CD00004432C60AC680321090220468843044683
:100CE00070690443AC606846FFF79EFC2548854266
:100CF00002D10698089001E0029808902868012126
:100D0000C9030840002809D0326851001923089A05
:100D10005A431046FFF706FA074608E0326891008A
:100D20001923089A5A431046FFF7FCF90746642135
:100D30003846FFF7F7F90401200964214843381ABF
:100D4000079028680121C903084000280AD00799A4
:100D5000C900084632306421FFF7E4F94007400F2C
:100D6000044309E007990901084632306421FFF77E
:100D7000D9F90007000F0443AC8109B0F0BD0000B1
:100D8000F3E9FFFF0038014070B505460C462B0023
:100D900000F0D7FE1FF2F1F0EFEEEDECEBEAE9E840
:100DA000111D2935414D5965717D8995A1ADB9C593
:100DB000D1DDF6E6F200002C06D00120FFF790FA14
:100DC000012000F02BFB01E000F0A6F969E1002C06
:100DD00006D00120FFF784FA022000F01FFB01E09B
:100DE00000F09AF95DE1002C06D00120FFF778FAB7
:100DF000032000F013FB01E000F08EF951E1002C1C
:100E000006D00120FFF76CFA042000F007FB01E098
:100E100000F082F945E1002C06D00120FFF760FACE
:100E2000052000F0FBFA01E000F076F939E1002C32
:100E300006D00120FFF754FA062000F093FC01E0F1
:100E400000F0C0F92DE1002C06D00120FFF748FA90
:100E5000072000F087FC01E000F0B4F921E1002C4C
:100E600006D00120FFF73CFA082000F07BFC01E0EF
:100E700000F0A8F915E1002C06D00120FFF730FAA8
:100E8000092000F06FFC01E000F09CF909E1002C62
:100E900006D00120FFF724FA0A2000F063FC01E0ED
:100EA00000F090F9FDE0002C06D00220FFF718FAC0
:100EB0000B2000F0A5F901E000F0F6F8F1E0002CBD
:100EC00006D00220FFF70CFA0C2000F099F901E09F
:100ED00000F0EAF8E5E0002C06D00220FFF700FA67
:100EE0000D2000F08DF901E000F0DEF8D9E0002CD3
:100EF00006D00220FFF7F4F90E2000F081F901E09E
:100F000000F0D2F8CDE0002C06D00220FFF7E8F97F
:100F10000F2000F075F901E000F0C6F8C1E0002CE8
:100F200006D00220FFF7DCF9102000F0E3F901E021
:100F300000F0D2F8B5E0002C06D00220FFF7D0F97F
:100F4000112000F0D7F901E000F0C6F8A9E0002C6C
:100F500013D00220FFF7C4F9122000F0CBF90EE005
:100F60001AE00DE090E083E076E069E05CE04FE0BD
:100F700042E035E028E01BE092E000F0ADF890E0C0
:100F8000002C06D00220FFF7ABF9132000F0B2F9D5
:100F900001E000F0A1F884E0002C06D00220FFF769
:100FA0009FF9142000F0A6F901E000F095F878E030
:100FB000002C06D00320FFF793F9152000F0C4FAA7
:100FC00001E000F0C7F86CE0002C06D00320FFF72A
:100FD00087F9162000F0B8FA01E000F0BBF860E0F5
:100FE000002C06D00320FFF77BF9172000F0ACFAA5
:100FF00001E000F0AFF854E0002C06D00320FFF72A
:101000006FF9182000F0A0FA01E000F0A3F848E022
:10101000002C06D00320FFF763F9192000F094FAA2
:1010200001E000F097F83CE0002C06D00320FFF729
:1010300057F91A2000F016FB01E000F0A7F830E0A5
:10104000002C06D00320FFF74BF91B2000F00AFB11
:1010500001E000F09BF824E0002C06D00320FFF70D
:101060003FF91C2000F0FEFA01E000F08FF818E0D4
:10107000002C06D00320FFF733F91D2000F0F2FA10
:1010800001E000F083F80CE0002C06D00320FFF70D
:1010900027F91E2000F0E6FA01E000F077F800E002
:1010A00000BF00BF70BD000010B580210948FFF7E8
:1010B00015F910210748FFF70FF908210548FFF738
:1010C0000BF920210348FFF709F940210148FFF7F8
:1010D00003F910BD0004004810B50121C90309201F
:1010E000C006FFF7FBF8012109030948FFF7F4F8F0
:1010F00004210848FFF7F0F80121C9020448FFF76E
:10110000EDF8012189020248FFF7E6F810BD000062
:1011100000080048000C004810B504210920C00652
:10112000FFF7DCF8012149020948FFF7D5F8FF2154
:1011300001310748FFF7D0F8FF2101310920C0062F
:10114000FFF7CCF808210920C006FFF7C5F810BD4D
:101150000008004810B510210920C006FFF7BEF8AE
:1011600080210920C006FFF7B7F810210648FFF7D5
:10117000B3F840210920C006FFF7B0F8202109206C
:10118000C006FFF7A9F810BD0008004810B50121FE
:1011900089020A48FFF7A2F801210848FFF79CF8E6
:1011A00020210748FFF798F802210448FFF796F836
:1011B00004210248FFF790F810BD00000004004829
:1011C0000008004810B5012149030B48FFF786F8D5
:1011D00040210A48FFF780F880210848FFF77CF893
:1011E0000121C9030448FFF779F801218903024866
:1011F000FFF772F810BD0000000400480008004826
:1012000010B5044620460B38030000F09AFC054355
:101210002E0419586D0080213548FFF75FF8102122
:101220003348FFF75BF808213148FFF755F82021D4
:101230002F48FFF753F840212D48FFF74FF854E0AF
:1012400080212B48FFF74AF810212948FFF746F87C
:1012500008212748FFF742F820212548FFF73EF8EC
:1012600040212348FFF738F83FE080212048FFF76E
:1012700035F810211E48FFF72FF808211C48FFF70A
:101280002DF820211A48FFF727F840211848FFF7CA
:1012900023F82AE080211648FFF720F8102114488F
:1012A000FFF71AF808211248FFF718F82021104814
:1012B000FFF712F840210E48FFF710F815E08021E3
:1012C0000B48FFF709F810210948FFF705F8082136
:1012D0000748FFF701F820210548FEF7FFFF4021EE
:1012E0000348FEF7F9FF00E000BF00BF10BD00009B
:1012F0000004004810B5044620461038030000F0F2
:1013000020FC055238041E6C86000121C903092007
:10131000C006FEF7E3FF012109033E48FEF7DEFFAA
:1013200004213D48FEF7D8FF0121C9023948FEF7E4
:10133000D5FF012189023748FEF7D0FF68E001217F
:10134000C9030920C006FEF7C9FF0121090331487E
:10135000FEF7C4FF04213048FEF7C0FF0121C90297
:101360002C48FEF7BBFF012189022A48FEF7B4FF93
:101370004EE00121C9030920C006FEF7AFFF01219D
:1013800009032448FEF7A8FF04212348FEF7A6FF1F
:101390000121C9021F48FEF79FFF012189021D4854
:1013A000FEF79AFF34E00121C9030920C006FEF7C9
:1013B00095FF012109031748FEF78EFF0421164807
:1013C000FEF78CFF0121C9021248FEF785FF0121BB
:1013D00089021048FEF782FF1AE00121C9030920A3
:1013E000C006FEF779FF012109030A48FEF774FFE2
:1013F00004210948FEF770FF0121C9020548FEF7E4
:101400006DFF012189020348FEF766FF00E000BF7F
:1014100000BF10BD00080048000C004810B504468D
:10142000230000F08EFB068B553A041F708B0421BD
:101430000920C006FEF752FF012149024148FEF78C
:101440004DFFFF2101313F48FEF746FFFF210131EB
:101450000920C006FEF742FF08210920C006FEF75A
:101460003DFF6CE004210920C006FEF737FF012193
:1014700049023448FEF732FFFF2101313148FEF7BF
:101480002DFFFF2101310920C006FEF727FF0821AB
:101490000920C006FEF720FF51E004210920C00604
:1014A000FEF71CFF012149022648FEF715FFFF2128
:1014B00001312448FEF712FFFF2101310920C00647
:1014C000FEF70AFF08210920C006FEF705FF36E0F7
:1014D00004210920C006FEF701FF01214902194835
:1014E000FEF7FAFEFF2101311648FEF7F7FEFF2155
:1014F00001310920C006FEF7EFFE08210920C006D1
:10150000FEF7ECFE1BE004210920C006FEF7E4FE16
:10151000012149020B48FEF7DFFEFF210131094896
:10152000FEF7DAFEFF2101310920C006FEF7D6FEE4
:1015300008210920C006FEF7CFFE00E000BF00BF73
:1015400010BD00000008004810B5044620461538BC
:10155000030000F0F6FA054F36041D6881001021E3
:101560000920C006FEF7BAFE80210920C006FEF75A
:10157000B5FE10213A48FEF7AFFE40210920C00613
:10158000FEF7ACFE20210920C006FEF7A7FE64E0AE
:1015900010210920C006FEF7A1FE80210920C00607
:1015A000FEF79CFE10212E48FEF798FE40210920F0
:1015B000C006FEF793FE20210920C006FEF78CFE30
:1015C0004BE010210920C006FEF788FE802109208B
:1015D000C006FEF781FE10212148FEF77FFE402164
:1015E0000920C006FEF778FE20210920C006FEF77C
:1015F00073FE32E010210920C006FEF76FFE802145
:101600000920C006FEF768FE10211548FEF766FEA9
:1016100040210920C006FEF75FFE20210920C006F8
:10162000FEF75CFE19E010210920C006FEF754FE0B
:1016300080210920C006FEF74FFE10210848FEF762
:101640004BFE40210920C006FEF748FE202109205C
:10165000C006FEF741FE00E000BF00BF10BD000065
:101660000008004810B5044620461A38030000F070
:1016700068FA054630041A5C720001218902374875
:10168000FEF72CFE01213548FEF728FE20213448C4
:10169000FEF722FE02213148FEF720FE04212F48EA
:1016A000FEF71CFE58E0012189022C48FEF716FEC9
:1016B00001212A48FEF712FE20212948FEF70EFEDE
:1016C00002212648FEF70AFE04212448FEF704FE04
:1016D00042E0012189022148FEF700FE01211F4856
:1016E000FEF7FAFD20211E48FEF7F8FD02211B48F7
:1016F000FEF7F2FD04211948FEF7EEFD2CE0012172
:1017000089021648FEF7EAFD01211448FEF7E4FDC0
:1017100020211348FEF7E2FD02211048FEF7DCFD10
:1017200004210E48FEF7DAFD16E0012189020B487C
:10173000FEF7D2FD01210948FEF7CEFD2021084821
:10174000FEF7CAFD02210548FEF7C8FD0421034843
:10175000FEF7C2FD00E000BF00BF10BD000400485E
:101760000008004810B50446A01F030000F0E9F986
:10177000054C34041C647C00012149033C48FEF7FD
:10178000ADFD40213B48FEF7A9FD80213948FEF719
:10179000A3FD0121C9033648FEF7A0FD01218903FD
:1017A0003348FEF79BFD60E0012149033048FEF716
:1017B00095FD40212F48FEF791FD80212D48FEF731
:1017C0008DFD0121C9032A48FEF788FD0121890307
:1017D0002748FEF781FD48E0012149032448FEF730
:1017E0007DFD40212348FEF777FD80212148FEF74B
:1017F00075FD0121C9031E48FEF76EFD0121890315
:101800001B48FEF769FD30E0012149031848FEF747
:1018100065FD40211748FEF75FFD80211548FEF762
:101820005DFD0121C9031248FEF756FD0121890320
:101830000F48FEF753FD18E0012149030C48FEF75D
:101840004BFD40210B48FEF747FD80210948FEF77C
:1018500043FD0121C9030648FEF740FD012189032C
:101860000348FEF739FD00E000BF00BF10BD0000D7
:10187000000400480008004810B52C4840780028B3
:1018800000D110BD2A4800882A49401800280AD0F3
:10189000012817D0FF380138002822D0FF3801383E
:1018A000002836D129E02248007923490870012018
:1018B0002249087022480078002802D101202049DE
:1018C000087027E01A4800791B49087000201B495E
:1018D00008701B480078002802D1012018490870C0
:1018E00018E0134800791749087017480078002855
:1018F00002D10120144908700CE00D480079134909
:10190000087013480078002802D10120104908709F
:1019100000E000BF00BF812189000548FEF71FFCE1
:1019200002480021018000BFABE700002E0000202C
:1019300078080020FF0EFFFF38000020390000204B
:101940003A0000203B0000203C0000203D00002029
:101950003E00002008B5002000906A486A490880CF
:10196000CDE06A484078012800D1C9E06648008887
:10197000002803D1012065494870C1E00121684673
:1019800000F087FA002800D1BAE060480078030030
:1019900000F0D7F805041528496FA30068460078C1
:1019A000552808D159480078401C58490870002033
:1019B0005749088002E00120544948709EE068467B
:1019C0000078AA2808D151480078401C4F49087077
:1019D00000204F49088004E001204C494870002055
:1019E00008708BE068460078F0280ADD68460078C9
:1019F00000024849088045480078401C4349087067
:101A000010E0812189004448FEF7A9FB00204149EC
:101A10000880424908803E49088001203B494870BF
:101A2000002008706AE03B4800886946097808434E
:101A300038490880084600883749088033480078CC
:101A4000401C3249087034480088002810D1812198
:101A500089003148FEF783FB00202E4908802F497A
:101A600008802B4908800120284948700020087010
:101A700044E06846007800280FDD68460078CC28EE
:101A80000BD068460178224802880088401C204B11
:101A900018802148001D81541EE068460078CC283B
:101AA0000BD100201B4908801C4908801849088078
:101AB00016490870012048700EE0812189001648FF
:101AC000FEF74DFB002013490880114908800120D2
:101AD0000E4948700020087010E0812189000E48EE
:101AE000FEF73DFB00200B4908800C49088008499F
:101AF0000880064908700120487000BF00BF30E729
:101B000000BF08BDB80B0000440000202E000020DC
:101B10003600002032000020780800203400002029
:101B200000B5A1B0802101A8FEF719FBAA216846E3
:101B30000171BB214171022101A800F0C1F921B05E
:101B400000BD30B47446641E2578641CAB4204D3D7
:101B5000635D5B00E31830BC18471D46F8E702E000
:101B600008C8121F08C1002AFAD170477047002028
:101B700001E001C1121F002AFBD1704770B5044675
:101B800000253021614308460721FEF7CBFA0646BF
:101B900000BF681C0546B04200D970BDF9E710B51A
:101BA000FEF73AFDFEF700FB00F008F800F034F80D
:101BB00000F074F800F0B2F810BD000010B5082174
:101BC0001448FEF789FB02211248FEF785FB01212C
:101BD0001048FEF781FB04210E48FEF77FFB012130
:101BE0000920C006FEF778FB012109030920C00681
:101BF000FEF772FB012149030648FEF76DFB012148
:101C000089030448FEF76AFB0121C9030148FEF776
:101C100063FB10BD0008004810B504210920C00670
:101C2000FEF75CFB012149021A48FEF755FBFF2134
:101C300001311848FEF750FBFF2101310920C00691
:101C4000FEF74CFB08210920C006FEF745FB0121E9
:101C500049031148FEF742FB40210E48FEF73CFBCA
:101C600080210C48FEF738FB0121C9030A48FEF722
:101C700035FB012189030848FEF72EFB01210903EA
:101C80000548FEF72BFB0121C9020920C006FEF71B
:101C900025FB10BD000800480004004810B5802155
:101CA0001B48FEF71BFB10211948FEF715FB082106
:101CB0001748FEF711FB20211548FEF70FFB4021C6
:101CC0001348FEF709FB0121C9030920C006FEF7EE
:101CD00005FB012109030F48FEF7FEFA04210E4817
:101CE000FEF7FAFA0121C9020A48FEF7F7FA0121C4
:101CF00089020848FEF7F0FA012149020448FEF77C
:101D0000EDFAFF2101310248FEF7E8FA10BD0000AC
:101D10000004004800080048000C004810B51021DD
:101D20000920C006FEF7DAFA80210920C006FEF776
:101D3000D3FA10211648FEF7CFFA40210920C00639
:101D4000FEF7CCFA20210920C006FEF7C5FA0121D2
:101D500089021048FEF7C2FA01210E48FEF7BCFACC
:101D600020210B48FEF7B8FA02210A48FEF7B6FA1E
:101D700004210848FEF7B0FA0121C9020548FEF720
:101D8000ADFA0121C9020920C006FEF7A7FA10BD6D
:101D90000008004800040048FEF73AFEFFF7FFFE87
:101DA00000F014F908E0FFF7D5FDFFF765FDFEF739
:101DB000F3F90520FFF7E2FEF5E7000010B50C4847
:101DC0000078012812D10B48007800280EDD094860
:101DD00000781F280ADA0848017806480078FEF7DC
:101DE000D3FF002002490870FFF79AFE10BD0000E3
:101DF0003A000020380000203900002010B50B48C0
:101E00000078012810D10A4800780A280CDA08481E
:101E10000078002808DD06480078FEF7BBFC0020AB
:101E200002490870FFF77CFE10BD00003C00002056
:101E30003B00002010B50B480078012810D10A485B
:101E4000007803280CDD08480078092808DA0648DD
:101E50000078FEF745FA002002490870FFF760FE9F
:101E600010BD00003E0000203D00002030B50446BB
:101E70000025ED430AE000F099F80546681C0028AB
:101E800000D104E0E9B2606800F06AF8F3E700BF4F
:101E900030BDF8B504460D4626460AE000F020F8AD
:101EA0000746781C002800D105E03770761C6D1EAF
:101EB00000BF002DF2D100BF301B00900098F8BD8C
:101EC00070B503460C4600261D4604E0287800F055
:101ED00085F86D1C641E002CF8D1EE1A304670BDDA
:101EE0000020C04308494988074A128891420AD015
:101EF00005494988054A505C03494988491C8905B8
:101F0000890D014A51807047480400204800002094
:101F100010B50D4C0D480E4948600E4888600846C3
:101F20000460012189020948FEF719F900200A49D5
:101F300008804880012189020648FEF710F9002038
:101F400006490880488010BD240000204800002079
:101F5000500800204C040020480400204C080020B9
:101F60000122920282181288815401229202821860
:101F70001288521C9205920D01239B02C3181A80ED
:101F8000012292028218128801239B02C3185B88E7
:101F90009A420AD10122920282185288521C92055A
:101FA000920D01239B02C3185A8070470020C04342
:101FB0000549C96920221140002903D00249203176
:101FC0008988C8B2704700000038014010B5FEF79C
:101FD000BFFDFEF7F5FAFFF79BFF10BD014600BFFE
:101FE0000548C069802210400028F9D002482030FE
:101FF0000181012070470000003801401C200008CA
:1020000000000020480000005E1B0008642000085B
:1020100048000020400E00006E1B00080000000079
:10202000010203040102030406070809006CDC0234
:102030000000000000000000010203040607080978
:10204000003801401B0000000000000000000000FC
:102050000000000000000000000000000000000080
:04206000B80B0000B9
:04000005080000B936
:00000001FF
