:020000040800F2
:10000000A00E0020CD000008090700088D0500089B
:1000100000000000000000000000000000000000E0
:100020000000000000000000000000004D0B000870
:100030000000000000000000D50800086D0C00085A
:10004000FD00000800000000FD000008FD000008A1
:10005000FD000008FD000008FD000008FD0000088C
:1000600000000000FD000008FD000008FD00000881
:10007000FD000008FD000008FD0000080000000071
:10008000FD000008FD000008FD000008FD0000085C
:10009000FD000008FD000008FD000008FD0000084C
:1000A000FD000008FD000008FD000008250D000807
:1000B000FD000008FD0000080348854600F05AF8DE
:1000C0000048004785280008A00E00200C4880F357
:1000D00008880C480168090E0B4A914205D10B486B
:1000E0000B4901600B480C4901600C4880470C48E3
:1000F0000047FEE7FEE7FEE7FEE7FEE7FEE700005B
:10010000A00E0020040000001F0000001810024094
:10011000010000000000014000000000A90C0008E0
:10012000B900000830B50B4601460020202201240A
:1001300009E00D46D5409D4205D31D469540491B1B
:100140002546954040191546521E002DF1DC30BD64
:10015000D2B201E00270401C491EFBD2704700225F
:10016000F6E710B513460A4604461946FFF7F0FFB6
:10017000204610BD064C0125064E05E0E36807CC7D
:100180002B430C3C98471034B442F7D3FFF798FF49
:10019000C02B0008E02B000870B505460C46002D6A
:1001A00004D0012D14D0022D34D123E0002C04D131
:1001B0000720C00102F0EAF903E00720C00102F0C5
:1001C0000DFA02F09DFB0021012000F01EFB22E051
:1001D000002C04D1FF20213002F0D8F903E0FF20E9
:1001E000213002F0FBF902F081FB0021084600F00B
:1001F0000CFB10E0002C03D1042002F0C7F902E050
:10020000042002F0EBF902F071FB0021084600F037
:10021000FCFA00E000BF00BF70BD10B502F07AFB31
:1002200002F098FB02F0E4FB02F0B4FB10BD00000A
:100230001CB51148009001216846017100218171AF
:10024000032141710121C17169460920C00600F0F6
:100250001FF80A4800906946094800F019F8094853
:1002600000906946084800F013F8042000906946A1
:10027000064800F00DF81CBDFF990000FFF30000D8
:1002800000040048FFFF000000080048000C004880
:10029000F0B50A4600210023002400BF3DE00125FF
:1002A0008D402B4615681D402C469C4234D1157953
:1002B000012D02D01579022D16D185684F00032635
:1002C000BE40B543856055794E00B54086683543DC
:1002D0008560858801268E40B5438580858896791E
:1002E0008E40B6B23543858005684F000326BE4078
:1002F000B543056015794E00B54006683543056085
:10030000C5684F000326BE40B543C560D5794E0091
:10031000B540C6683543C560491C1029BFD3F0BD40
:10032000F0B5002300244D07EE0E1546B5402B46D0
:10033000CD10AE0005462035AD594E07F70E0F26FD
:10034000BE40B543CE10B60007462037BD51CD1094
:10035000AE003D46AD591D432C46CD10AD003E4686
:100360007451F0BD018570478161704710B5044636
:10037000002C04D1FF20413002F008F903E0FF20F7
:10038000413002F02BF902F0B1FA0021084600F0EA
:100390003CFA10BD10B502F08FF910BD10B504463F
:1003A000230002F0A6F809B61A062E42869E6E5663
:1003B000B60000F0CDF802215748FFF7D5FF012124
:1003C0005548FFF7CFFF04215348FFF7CDFF012128
:1003D0000920C006FFF7C8FF9CE000F0B9F8022131
:1003E0004D48FFF7C1FF01214B48FFF7BDFF042136
:1003F0004948FFF7B9FF01210920C006FFF7B2FF06
:1004000088E000F0A5F802214348FFF7ABFF012187
:100410004148FFF7A9FF04213F48FFF7A3FF01214F
:100420000920C006FFF79EFF74E000F091F802215A
:100430003948FFF797FF01213748FFF795FF04215F
:100440003548FFF78FFF01210920C006FFF78CFF19
:1004500060E000F063F8012109030920C006FFF7FE
:1004600083FF012149032C48FFF77CFF0121890309
:100470002948FFF779FF0121C9032748FFF774FFD7
:1004800048E000F04BF8012109030920C006FFF7FE
:100490006BFF012149032048FFF766FF0121890313
:1004A0001D48FFF761FF0121C9031B48FFF75AFFF1
:1004B00030E000F033F8012109030920C006FFF7FE
:1004C00051FF012149031448FFF74EFF0121890321
:1004D0001148FFF747FF0121C9030F48FFF742FF0B
:1004E00018E000F01BF8012109030920C006FFF7FE
:1004F00039FF012149030848FFF736FF012189032D
:100500000548FFF72FFF0121C9030348FFF72CFF20
:1005100000E000BF00BF10BD0008004810B5082172
:100520000A48FFF721FF02210848FFF71BFF0121BE
:100530000648FFF717FF04210448FFF715FF0121C4
:100540000920C006FFF70EFF10BD0000000800489C
:1005500010B508210C48FFF705FF01210903092008
:10056000C006FFF7FFFE012149030748FFF7FAFE27
:10057000012189030448FFF7F7FE0121C90302485E
:10058000FFF7F0FE10BD00000008004800BFFEE7C6
:10059000FFB581B0054616461F46012000034549B8
:1005A00008600AE0434801680068401E414A106044
:1005B000002902D1012005B0F0BD0121C9033E4848
:1005C00000F07CF80028EDD101204003C302012295
:1005D00029460090384800F081F801200003354991
:1005E000086009E0334801680068401E314A106025
:1005F000002901D10120DEE702212F4800F05EF83A
:100600000028EFD02C48029900F066F80120000382
:100610002849086009E0274801680068401E254A0B
:100620001060002901D10120C5E78021224800F097
:1006300045F80028EFD0002001235B06324629460A
:1006400000901D4800F04AF800241AE00120000341
:100650001849086009E0174801680068401E154AFB
:100660001060002901D10120A5E70221124800F005
:1006700025F80028EFD0395D0F4800F02DF8601CF8
:10068000C4B2B442E2DB012000030A49086009E079
:10069000084801680068401E064A1060002901D120
:1006A000012088E72021044800F008F80028EFD056
:1006B000002080E7380000200058004010B50246B6
:1006C0000023002093691C460C402346002B01D0D8
:1006D000012000E0002010BD81627047F0B50C469B
:1006E00000214168074D2940A505AD0D1604FF27DF
:1006F0003F043E4035431D43059E35432943416039
:10070000F0BD0000009800FC7047000000218278D6
:10071000002A27D0184A03231B02D21803789B1003
:100720009B00D15802789207D30EFF229A400B46C5
:100730009343194642789207120E03789B07DB0E0B
:100740009A4011430C4A03231B02D21803789B10D2
:100750009B00D1500278D306DB0E01229A40064B53
:100760001A6007E00278D306DB0E01229A40024BA2
:1007700080331A607047000000E100E010B50028E7
:1007800019DA1A4A03071B0F083B9B089B00D25833
:100790008307DC0EFF23A3409A438B071B0E8407BD
:1007A000E40EA3401A43114B0407240F083CA4088D
:1007B000A4001A5118E00E4A03231B02D218830822
:1007C0009B00D2588307DC0EFF23A3409A438B077C
:1007D0001B0E8407E40EA3401A43054B0324240296
:1007E0001B198408A4001A5110BD00001CED00E084
:1007F00000E100E008B51B2168460170002141704E
:1008000001218170FFF782FF08BD70B504460D46D7
:10081000002C08D1002D06D100F02AF801280DD1B6
:1008200001F09EFE0AE0012C08D1002D06D1012026
:1008300000F01EF8012801D101F092FE70BD000009
:1008400010B50446094B022206212046FFF7A0FE00
:10085000012800D110BD054B022207212046FFF7D9
:1008600097FE012800D1F5E70020F3E73C000020C7
:1008700010B50446002C12D1154B0222114640201F
:10088000FFF786FE012800D110BD114B9B1C0222F0
:1008900003214020FFF77CFE012816D1F4E7012C4C
:1008A00013D10B4B1B1D022211464620FFF770FE91
:1008B000012800D1E8E7064B9B1D022203214620B8
:1008C000FFF766FE012800D1DEE70020DCE700002C
:1008D0003E00002070470000002905D0054A5269FB
:1008E0000243044B5A6104E0024A52698243014BBD
:1008F0005A61704700100240002905D0054A9269EC
:100900000243044B9A6104E0024A92698243014B1C
:100910009A6170470010024010B501210F20400479
:10092000FFF7DAFF10BD0000FEB5044600250026E3
:100930000020019000900027504840680C2108409A
:100940000546002D04D0042D05D0082D28D105E042
:100950004B48206027E04A48206024E04748406830
:100960000F218904084006464448406801210904D3
:1009700008400190B00C861C0198002803D1414822
:10098000704320600BE03D48C06A0007000F401C28
:1009900000903B480099FFF7C5FB7043206002E0E0
:1009A0003748206000BF00BF34484068F02108404D
:1009B00005462D093448475D2068F84060602F489F
:1009C000406807210902084005462D0A2E48475D68
:1009D0006068F840A0602948006BFF2101310840A1
:1009E000884202D02948E0600DE024484068012197
:1009F00089030840884203D0A0684008E06002E014
:100A0000A0688008E0601D48006B40210840402835
:100A100002D01F48206102E00120C0032061174876
:100A2000006B10210840102802D01548606101E0D9
:100A3000206860611148006B8007800F002802D198
:100A4000A068A06119E00D48006B8007800F0128A5
:100A500002D12068A06110E00848006B8007800F79
:100A6000022802D18003A06107E00448006B8007E0
:100A7000800F032801D10248A061FEBD0010024092
:100A800000127A0000093D0000000020809FD50080
:100A90001280000010B50446002C04D1FF20113054
:100AA00001F074FD03E0FF20113001F097FD01F02B
:100AB0001DFF00210846FFF7A8FE10BD10B5044633
:100AC000002C03D1082001F061FD02E0082001F0B4
:100AD00085FD01F00BFF00210846FFF796FE10BDD3
:100AE00010B50446002C04D10D20800101F04EFD0C
:100AF00003E00D20800101F071FD01F001FF0021F4
:100B00000120FFF782FE10BD70B505460C46012D91
:100B100004D0022D09D0032D15D10DE00120FFF7DF
:100B20003DFC2046FFF7DCFF0EE00120FFF736FC1E
:100B30002046FFF7AFFF07E00120FFF72FFC20461C
:100B4000FFF7BCFF00E000BF00BF70BD70470000B2
:100B50000CB5002001900090314800680121090483
:100B600008432F49086000BF2D480068012149044F
:100B7000084000900198401C01900098002804D182
:100B80000521090201988842EED12548006801211B
:100B900049040840002802D00120009001E0002014
:100BA00000900098012839D111201E4908601C4886
:100BB00040681B49486008464068486008464068ED
:100BC0003F210904884316494860084640681121BE
:100BD00009040843124948600846006801210906D3
:100BE00008430F49086000BF0D480068012149060D
:100BF00008400028F8D00A4840688008800008496A
:100C0000486008464068022108430549486000BF23
:100C1000034840680C2108400828F9D10CBD0000A9
:100C2000001002400020024010B57D21C9000C4890
:100C30000068FFF777FA0446601E0A49884200D927
:100C40000CE0601E084948610321081FFFF796FD6C
:100C50000020054988610720086100BF10BD000021
:100C600010000020FFFFFF0000E000E00B480068DC
:100C70000B49884205D209480068401C07490860B2
:100C800002E000200549086006480088002804D0DA
:100C900004480088401E0349088070475400002023
:100CA000FFFF8F005800002010B51B48006801218D
:100CB0000843194908600846406818490840164921
:100CC000486008460068164908401349086008460D
:100CD00000680121890488430F490860084640687C
:100CE0003F21090488430C4948600846C06A00094E
:100CF0000001C8620846006BFF2154318843064951
:100D000008630846406B4008400048630020886044
:100D1000FFF71EFF10BD0000001002400CB8FFF8E6
:100D2000FFFFF6FE10B50C490C4800F076F80028DD
:100D300006D00B4801F07CFE0749084800F058F83F
:100D40000849064800F069F8002803D0054903481F
:100D500000F04EF810BD000005010500003801400C
:100D6000640800200601060000B589B0012148048E
:100D7000FFF7B2FD01218803FFF7BEFD0122092123
:100D8000C806FFF7CDFA01220A210920C006FFF7A5
:100D9000C7FA032040020790022108A8017003212E
:100DA0004170002181700121C17007A90920C0068E
:100DB000FFF76EFAE12040020190002002900390BC
:100DC000049006900C20059001A9074800F06EF8E9
:100DD00001220649044800F047F80121024800F0CA
:100DE00010F809B000BD0000003801400501050001
:100DF00010B5002300220B0C01249C402246026205
:100E000010BD002904D0026801231A43026003E0E8
:100E10000268520852000260704770B502460B46E5
:100E200000240021002500201E04350ED9B2012621
:100E30008E403146012D02D11668314006E0022D68
:100E400002D15668314001E0966831401C0C012601
:100E5000A6403446D6693440002903D0002C01D086
:100E6000012000E0002070BDF8B5034600240026F4
:100E700000960025002018460E04340ECEB20096CF
:100E80000127009EB7403D46022C01D1001D02E023
:100E9000032C00D10830002A03D006682E430660D8
:100EA00002E00668AE430660F8BD0000F0B589B008
:100EB00005460E4600240020089000BF00BF2868A9
:100EC0004008400028606C680321090320468843DD
:100ED0000446B06804436C602C682F480440F168F5
:100EE000706808433169084304432C60AC680321EF
:100EF000090220468843044670690443AC60684692
:100F0000FFF712FD2548854202D10698089001E0BE
:100F10000298089028680121C9030840002809D0D8
:100F2000326851001923089A5A431046FFF7FAF81D
:100F3000074608E0326891001923089A5A43104680
:100F4000FFF7F0F8074664213846FFF7EBF8040195
:100F5000200964214843381A079028680121C903F1
:100F6000084000280AD00799C90008463230642199
:100F7000FFF7D8F84007400F044309E0079909013B
:100F8000084632306421FFF7CDF80007000F044314
:100F9000AC8109B0F0BD0000F3E9FFFF003801406B
:100FA00070B505460C461F2D6FD26B007B449B88A5
:100FB0005B009F446A009B01C101E7010D023302FF
:100FC00059027F02A502CB02F1021E0044006B0011
:100FD0009100B700DD00030129014F0175011703DE
:100FE0003D0363038903AF03D503FB0321044704D7
:100FF0006E04002C19D00220FFF7D0F900F006FD96
:10100000322001F093FA0021022000F06BFC6420F2
:1010100001F08CFA0121022000F064FC642001F050
:1010200085FA012000F072FE08E000F0EFFC642079
:1010300001F07CFA0021022000F054FC13E2002CA5
:1010400019D00220FFF7AAF900F0E0FC322001F0ED
:101050006DFA0021022000F045FC642001F066FAE0
:101060000121022000F03EFC642001F05FFA022022
:1010700000F04CFE08E000F0C9FC642001F056FAD4
:101080000021022000F02EFCD8E7F7E3002C19D055
:101090000220FFF783F900F0B9FC322001F046FA94
:1010A0000021022000F01EFC642001F03FFA012123
:1010B000022000F017FC642001F038FA032000F051
:1010C00025FE08E000F0A2FC642001F02FFA0021C8
:1010D000022000F007FCB1E7002C19D00220FFF736
:1010E0005DF900F093FC322001F020FA002102208B
:1010F00000F0F8FB642001F019FA0121022000F051
:10110000F1FB642001F012FA042000F0FFFD08E07A
:1011100000F07CFC642001F009FA0021022000F0BC
:10112000E1FBDDE3002C19D00220FFF737F900F0D6
:101130006DFC322001F0FAF90021022000F0D2FB10
:10114000642001F0F3F90121022000F0CBFB6420C0
:1011500001F0ECF9052000F0D9FD08E000F056FCA4
:10116000642001F0E3F90021022000F0BBFBB7E3AB
:10117000002C19D00220FFF711F900F09BFC32205F
:1011800001F0D4F90021032000F0ACFB642001F051
:10119000CDF90121032000F0A5FB642001F0C6F980
:1011A000062000F04DFF08E000F084FC642001F010
:1011B000BDF90021032000F095FB91E3002C19D02C
:1011C0000220FFF7EBF800F075FC322001F0AEF9D9
:1011D0000021032000F086FB642001F0A7F9012123
:1011E000032000F07FFB642001F0A0F9072000F04D
:1011F00027FF08E000F05EFC642001F097F9002171
:10120000032000F06FFB6BE3002C19D00220FFF7E6
:10121000C5F800F04FFC322001F088F900210320CE
:1012200000F060FB642001F081F90121032000F04F
:1012300059FB642001F07AF9082000F001FF08E072
:1012400000F038FC642001F071F90021032000F067
:1012500049FB45E3002C19D00220FFF79FF800F06E
:1012600029FC322001F062F90021032000F03AFB52
:10127000642001F05BF90121032000F033FB6420BE
:1012800001F054F9092000F0DBFE08E000F012FC48
:10129000642001F04BF90021032000F023FB1FE341
:1012A000002C19D00220FFF779F800F003FC32205F
:1012B00001F03CF90021032000F014FB642001F050
:1012C00035F90121032000F00DFB642001F02EF917
:1012D0000A2000F0B5FE08E000F0ECFB642001F00D
:1012E00025F90021032000F0FDFAF9E2002C19D0C5
:1012F0000120FFF753F800F0A7FB322001F016F9A8
:101300000021084600F0EEFA642001F00FF90121F7
:10131000002000F0E7FA642001F008F9152000F041
:101320008BFD08E000F090FB642001F0FFF8002145
:10133000084600F0D7FAD3E2002C19D00120FFF7BD
:101340002DF800F081FB322001F0F0F80021084672
:1013500000F0C8FA642001F0E9F80121002000F053
:10136000C1FA642001F0E2F8162000F065FD08E003
:1013700000F06AFB642001F0D9F80021084600F073
:10138000B1FAADE2002C19D00120FFF707F800F008
:101390005BFB322001F0CAF80021084600F0A2FAF7
:1013A000642001F0C3F80121002000F09BFA6420C2
:1013B00001F0BCF8172000F03FFD08E000F044FB0E
:1013C000642001F0B3F80021084600F08BFA87E2B0
:1013D000002C19D00120FEF7E1FF00F035FB322090
:1013E00001F0A4F80021084600F07CFA642001F026
:1013F0009DF80121002000F075FA642001F096F8B4
:10140000182000F019FD08E000F01EFB642001F038
:101410008DF80021084600F065FA61E2002C19D031
:101420000120FEF7BBFF00F00FFB322001F07EF839
:101430000021084600F056FA642001F077F80121F7
:10144000002000F04FFA642001F070F8192000F03D
:10145000F3FC08E000F0F8FA642001F067F80021DE
:10146000084600F03FFA3BE2002C19D00120FEF7BD
:1014700095FF00F005FB322001F058F80021012013
:1014800000F030FA642001F051F80121084600F024
:1014900029FA642001F04AF81A2000F05BFD08E008
:1014A00000F0EEFA642001F041F80021012000F084
:1014B00019FA15E2002C19D00120FEF76FFF00F099
:1014C000DFFA322001F032F80021012000F00AFAA0
:1014D000642001F02BF80121084600F003FA642093
:1014E00001F024F81B2000F035FD08E000F0C8FAF8
:1014F000642001F01BF80021012000F0F3F9EFE176
:10150000002C19D00120FEF749FF00F0B9FA322073
:1015100001F00CF80021012000F0E4F9642001F052
:1015200005F80121084600F0DDF9642000F0FEFF17
:101530001C2000F00FFD08E000F0A2FA642000F08B
:10154000F5FF0021012000F0CDF9C9E1002C19D0F0
:101550000120FEF723FF00F093FA322000F0E6FFAF
:101560000021012000F0BEF9642000F0DFFF01211E
:10157000084600F0B7F9642000F0D8FF1D2000F005
:10158000E9FC08E000F07CFA642000F0CFFF0021C5
:10159000012000F0A7F9A3E1002C19D00120FEF7EB
:1015A000FDFE00F06DFA322000F0C0FF00210120A6
:1015B00000F098F9642000F0B9FF0121084600F01E
:1015C00091F9642000F0B2FF1E2000F0C3FC08E097
:1015D00000F056FA642000F0A9FF0021012000F07D
:1015E00081F97DE1002C19D00320FEF7D7FE00F031
:1015F000D5F9322000F09AFF0021042000F072F9A2
:10160000642000F093FF0121042000F06BF96420B6
:1016100000F08CFF0B2000F06BFA08E000F0BEF940
:10162000642000F083FF0021042000F05BF957E103
:10163000002C19D00320FEF7B1FE00F0AFF93220E4
:1016400000F074FF0021042000F04CF9642000F049
:101650006DFF0121042000F045F9642000F066FFD1
:101660000C2000F045FA08E000F098F9642000F042
:101670005DFF0021042000F035F931E1002C19D084
:101680000320FEF78BFE00F089F9322000F04EFFB8
:101690000021042000F026F9642000F047FF01211A
:1016A000042000F01FF9642000F040FF0D2000F03E
:1016B0001FFA08E000F072F9642000F037FF002103
:1016C000042000F00FF90BE1002C19D00320FEF7E5
:1016D00065FE00F063F9322000F028FF00210420AD
:1016E00000F000F9642000F021FF0121042000F047
:1016F000F9F8642000F01AFF0E2000F0F9F908E074
:1017000000F04CF9642000F011FF0021042000F0EB
:10171000E9F8E5E0002C19D00320FEF73FFE00F0C9
:101720003DF9322000F002FF0021042000F0DAF839
:10173000642000F0FBFE0121042000F0D3F86420B7
:1017400000F0F4FE0F2000F0D3F908E000F026F9D5
:10175000642000F0EBFE0021042000F0C3F8BFE09D
:10176000002C19D00320FEF719FE00F02FF93220CB
:1017700000F0DCFE0021052000F0B4F8642000F049
:10178000D5FE0121052000F0ADF8642000F0CEFE6A
:10179000102000F027FA08E000F018F9642000F0AB
:1017A000C5FE0021052000F09DF899E0002C19D01D
:1017B0000320FEF7F3FD00F009F9322000F0B6FE39
:1017C0000021052000F08EF8642000F0AFFE01211A
:1017D000052000F087F8642000F0A8FE112000F03A
:1017E00001FA08E000F0F2F8642000F09FFE00210A
:1017F000052000F077F873E0002C19D00320FEF7E5
:10180000CDFD00F0E3F8322000F090FE002105202D
:1018100000F068F8642000F089FE0121052000F046
:1018200061F8642000F082FE122000F0DBF908E08D
:1018300000F0CCF8642000F079FE0021052000F0D3
:1018400051F84DE0002C1AD00320FEF7A7FD00F060
:10185000BDF8322000F06AFE0021052000F042F8B9
:10186000642000F063FE0121052000F03BF86420B5
:1018700000F05CFE132000F0B5F909E02FE000F065
:10188000A5F8642000F052FE0021052000F02AF89F
:1018900026E0002C19D00320FEF780FD00F096F81A
:1018A000322000F043FE0021052000F01BF86420E8
:1018B00000F03CFE0121052000F014F8642000F047
:1018C00035FE142000F08EF908E000F07FF8642067
:1018D00000F02CFE0021052000F004F800E000BF1D
:1018E00000BF70BD70B505460C462B0000F001FE30
:1018F0000604121624344250002C05D1022109207E
:10190000C006FEF72FFD04E002210920C006FEF705
:101910002BFD3EE060B2FEF729FD3AE0002C05D138
:10192000012109031C48FEF71DFD04E00121090304
:101930001948FEF719FD2CE0002C06D10121C9023F
:101940000920C006FEF70EFD05E00121C9020920AD
:10195000C006FEF709FD1CE0002C05D1FF21013176
:101960000D48FEF7FFFC04E0FF2101310A48FEF7B5
:10197000FBFC0EE0002C05D1012149020648FEF7D0
:10198000F1FC04E0012149020348FEF7EDFC00E010
:1019900000BF00BF70BD00000004004810B58021EA
:1019A0000948FEF7E1FC10210748FEF7DBFC08219F
:1019B0000548FEF7D7FC20210348FEF7D5FC40215F
:1019C0000148FEF7CFFC10BD0004004810B501210E
:1019D000C9030920C006FEF7C7FC01210903094815
:1019E000FEF7C0FC04210848FEF7BCFC0121C90237
:1019F0000448FEF7B9FC012189020248FEF7B2FC57
:101A000010BD000000080048000C004810B504217B
:101A10000920C006FEF7A8FC012149020948FEF78B
:101A2000A1FCFF2101310748FEF79CFCFF21013199
:101A30000920C006FEF798FC08210920C006FEF721
:101A400091FC10BD0008004810B510210920C00607
:101A5000FEF78AFC80210920C006FEF783FC1021D6
:101A60000648FEF77FFC40210920C006FEF77CFCFB
:101A700020210920C006FEF775FC10BD00080048B3
:101A800010B5012000F066FB01210848FEF76AFC52
:101A900020210748FEF766FC02210448FEF764FC9B
:101AA00004210248FEF75EFC10BD0000000400485F
:101AB0000008004810B5012149030B48FEF754FC0B
:101AC00040210A48FEF74EFC80210848FEF74AFCF8
:101AD0000121C9030448FEF747FC0121890302489C
:101AE000FEF740FC10BD000000040048000800485C
:101AF00010B5044620460B38030000F0FAFC0543FD
:101B00002E0419586D0080213548FEF72DFC102158
:101B10003348FEF729FC08213148FEF723FC202139
:101B20002F48FEF721FC40212D48FEF71DFC54E014
:101B300080212B48FEF718FC10212948FEF714FCE1
:101B400008212748FEF710FC20212548FEF70CFC51
:101B500040212348FEF706FC3FE080212048FEF7A5
:101B600003FC10211E48FEF7FDFB08211C48FEF770
:101B7000FBFB20211A48FEF7F5FB40211848FEF731
:101B8000F1FB2AE080211648FEF7EEFB10211448F5
:101B9000FEF7E8FB08211248FEF7E6FB202110487B
:101BA000FEF7E0FB40210E48FEF7DEFB15E080214A
:101BB0000B48FEF7D7FB10210948FEF7D3FB08219D
:101BC0000748FEF7CFFB20210548FEF7CDFB40215B
:101BD0000348FEF7C7FB00E000BF00BF10BD0000D8
:101BE0000004004810B5044620461038030000F0F9
:101BF00080FC055238041E6C86000121C9030920AF
:101C0000C006FEF7B1FB012109033E48FEF7ACFB1D
:101C100004213D48FEF7A6FB0121C9023948FEF721
:101C2000A3FB012189023748FEF79EFB68E00121F2
:101C3000C9030920C006FEF797FB012109033148BB
:101C4000FEF792FB04213048FEF78EFB0121C9020A
:101C50002C48FEF789FB012189022A48FEF782FB06
:101C60004EE00121C9030920C006FEF77DFB0121DA
:101C700009032448FEF776FB04212348FEF774FB92
:101C80000121C9021F48FEF76DFB012189021D4891
:101C9000FEF768FB34E00121C9030920C006FEF706
:101CA00063FB012109031748FEF75CFB042116487A
:101CB000FEF75AFB0121C9021248FEF753FB01212E
:101CC00089021048FEF750FB1AE00121C9030920E0
:101CD000C006FEF747FB012109030A48FEF742FB55
:101CE00004210948FEF73EFB0121C9020548FEF721
:101CF0003BFB012189020348FEF734FB00E000BFF3
:101D000000BF10BD00080048000C004810B5044694
:101D1000230000F0EEFB068B553A041F708B042164
:101D20000920C006FEF720FB012149024148FEF7C9
:101D30001BFBFF2101313F48FEF714FBFF2101315E
:101D40000920C006FEF710FB08210920C006FEF797
:101D50000BFB6CE004210920C006FEF705FB012106
:101D600049023448FEF700FBFF2101313148FEF7FC
:101D7000FBFAFF2101310920C006FEF7F5FA082120
:101D80000920C006FEF7EEFA51E004210920C00642
:101D9000FEF7EAFA012149022648FEF7E3FAFF219D
:101DA00001312448FEF7E0FAFF2101310920C00685
:101DB000FEF7D8FA08210920C006FEF7D3FA36E06C
:101DC00004210920C006FEF7CFFA01214902194873
:101DD000FEF7C8FAFF2101311648FEF7C5FAFF21C8
:101DE00001310920C006FEF7BDFA08210920C0060E
:101DF000FEF7BAFA1BE004210920C006FEF7B2FA8A
:101E0000012149020B48FEF7ADFAFF2101310948D3
:101E1000FEF7A8FAFF2101310920C006FEF7A4FA57
:101E200008210920C006FEF79DFA00E000BF00BFB0
:101E300010BD00000008004810B5044620461538C3
:101E4000030000F056FB054F36041D688100102189
:101E50000920C006FEF788FA80210920C006FEF797
:101E600083FA10213A48FEF77DFA40210920C00686
:101E7000FEF77AFA20210920C006FEF775FA64E021
:101E800010210920C006FEF76FFA80210920C00644
:101E9000FEF76AFA10212E48FEF766FA4021092063
:101EA000C006FEF761FA20210920C006FEF75AFAA3
:101EB0004BE010210920C006FEF756FA80210920C8
:101EC000C006FEF74FFA10212148FEF74DFA4021D7
:101ED0000920C006FEF746FA20210920C006FEF7B9
:101EE00041FA32E010210920C006FEF73DFA8021B8
:101EF0000920C006FEF736FA10211548FEF734FA1D
:101F000040210920C006FEF72DFA20210920C00635
:101F1000FEF72AFA19E010210920C006FEF722FA7E
:101F200080210920C006FEF71DFA10210848FEF79F
:101F300019FA40210920C006FEF716FA20210920CF
:101F4000C006FEF70FFA00E000BF00BF10BD0000A2
:101F50000008004810B5044620461A38030000F077
:101F6000C8FA05402C0418546800012000F0F2F86B
:101F700001213148FEF7F8F920213048FEF7F2F947
:101F800002212D48FEF7F0F904212B48FEF7ECF969
:101F900050E0012000F0DEF801212748FEF7E4F9C7
:101FA00020212648FEF7E0F902212348FEF7DCF95C
:101FB00004212148FEF7D6F93CE0012000F0CAF8E0
:101FC00001211D48FEF7CEF920211C48FEF7CCF96F
:101FD00002211948FEF7C6F904211748FEF7C2F995
:101FE00028E0012000F0B6F801211348FEF7BAF905
:101FF00020211248FEF7B8F902210F48FEF7B2F986
:1020000004210D48FEF7B0F914E0002000F0A2F81A
:1020100001210948FEF7A6F920210848FEF7A2F998
:1020200002210548FEF7A0F904210348FEF79AF9BA
:1020300000E000BF00BF10BD0004004800080048D9
:1020400010B50446A01F030000F053FA054C3404F9
:102050001C647C00012149033C48FEF785F94021BE
:102060003B48FEF781F980213948FEF77BF90121D1
:10207000C9033648FEF778F9012189033348FEF792
:1020800073F960E0012149033048FEF76DF9402102
:102090002F48FEF769F980212D48FEF765F90121E7
:1020A000C9032A48FEF760F9012189032748FEF792
:1020B00059F948E0012149032448FEF755F9402128
:1020C0002348FEF74FF980212148FEF74DF9012101
:1020D000C9031E48FEF746F9012189031B48FEF794
:1020E00041F930E0012149031848FEF73DF940214C
:1020F0001748FEF737F980211548FEF735F9012119
:10210000C9031248FEF72EF9012189030F48FEF793
:102110002BF918E0012149030C48FEF723F940216F
:102120000B48FEF71FF980210948FEF71BF9012132
:10213000C9030648FEF718F9012189030348FEF791
:1021400011F900E000BF00BF10BD0000000400480E
:102150000008004810B50446002C04D1FF2081304F
:1021600000F014FA03E0FF20813000F037FA00F0AD
:10217000BDFB00210846FEF748FB10BD10B55148D5
:102180004078002800D110BD4F4801884F4A881A76
:10219000914252D00CDC4E480818002811D001287A
:1021A0001ED0FF380138002829D001287ED135E023
:1021B000012851D0FF380138002858D0012875D1A6
:1021C00064E04148007943490870012042490870A1
:1021D00042480078002802D101204049087066E09A
:1021E000394800793B49087000203B4908703B485A
:1021F0000078002802D101203849087057E03248A1
:10220000007937490870012036490870364800784F
:10221000002802D101203449087048E02A4800799A
:102220002F49087000202F4908702F480078002897
:1022300002D101202C49087039E0234800792B494C
:10224000087001202A4908702A480078002802D125
:102250000120284908702AE00220254908702548F5
:102260000078002802D10120224908701FE016489A
:102270000079214908700120204908702048007821
:10228000002802D101201E49087010E00E48007994
:102290001949087000201949087019480078002869
:1022A00002D101201649087001E0FFE700BF00BF1E
:1022B000812189000448FDF752FF02480021018076
:1022C00000BF60E72E0000208C08002001F3000012
:1022D000FF0EFFFF460000204700002048000020BE
:1022E000490000204E0000204A0000204B00002042
:1022F0004C0000204D0000204F0000205000002026
:102300005100002008B5002000906A486A49088002
:10231000CDE06A484078012800D1C9E066480088CD
:10232000002803D1012065494870C1E001216846B9
:1023300000F091FB002800D1BAE06048007803006B
:1023400000F0D7F805041528496FA3006846007807
:10235000552808D159480078401C58490870002079
:102360005749088002E00120544948709EE06846C1
:102370000078AA2808D151480078401C4F490870BD
:1023800000204F49088004E001204C49487000209B
:1023900008708BE068460078F0280ADD684600780F
:1023A00000024849088045480078401C43490870AD
:1023B00010E0812189004448FDF7D1FE0020414909
:1023C0000880424908803E49088001203B49487006
:1023D000002008706AE03B48008869460978084395
:1023E0003849088008460088374908803348007813
:1023F000401C3249087034480088002810D18121DF
:1024000089003148FDF7ABFE00202E4908802F4996
:1024100008802B4908800120284948700020087056
:1024200044E06846007800280FDD68460078CC2834
:102430000BD068460178224802880088401C204B57
:1024400018802148001D81541EE068460078CC2881
:102450000BD100201B4908801C49088018490880BE
:1024600016490870012048700EE081218900164845
:10247000FDF775FE002013490880114908800120EE
:102480000E4948700020087010E0812189000E4834
:10249000FDF765FE00200B4908800C4908800849BB
:1024A0000880064908700120487000BF00BF30E76F
:1024B00000BF08BDB80B0000580000202E0000200F
:1024C00036000020320000208C080020340000205C
:1024D00000B5A1B0802101A8FDF741FEAA21684600
:1024E0000171BB214171022101A800F0CBFA21B09A
:1024F00000BD30B47446641E2578641CAB4204D31E
:10250000635D5B00E31830BC18471D46F8E702E046
:1025100008C8121F08C1002AFAD17047704700206E
:1025200001E001C1121F002AFBD1704710B504461B
:102530007D21C9006143084600F001F810BD70B567
:10254000044600253021614308460721FDF7EAFDD6
:10255000064600BF681C0546B04200D970BDF9E7C9
:1025600010B5FFF7B5FF10BD10B500F063F84020BF
:10257000FEF766F94620FEF763F900210846FEF7EC
:1025800044F900210120FEF740F910BD0112002995
:1025900006D001290AD002290ED0032918D111E052
:1025A0000D49097881430C4A117012E00A494978B3
:1025B0008143094A51700CE0074909798143064A71
:1025C000117106E0044949798143034A517100E0E1
:1025D00000BF00BF704700003E000020011200292C
:1025E00006D001290BD0022910D003291CD114E0F8
:1025F0000F490978C2B211430D4A117015E00C4918
:102600004978C2B211430A4A51700EE0084909796B
:10261000C2B21143064A117107E005494979C2B2B5
:102620001143034A517100E000BF00BF7047000032
:102630003E00002000200A490870487008710021FF
:102640000748417100200649887000210448C17084
:1026500000200349887100210148C17170470000C2
:102660003E00002010B5FEF757F9FDF7E1FD00F040
:1026700023F800F04FF800F08FF800F0CDF80121BA
:1026800009030C48FDF76EFE0121C9020920C006AE
:10269000FDF768FEFF2101310648FDF763FE0121C9
:1026A00049020448FDF75EFE02210920C006FDF73D
:1026B00059FE10BD0004004810B508211448FDF76C
:1026C00051FE02211248FDF74DFE01211048FDF791
:1026D00049FE04210E48FDF747FE01210920C006EE
:1026E000FDF740FE012109030920C006FDF73AFE6F
:1026F000012149030648FDF735FE012189030448FD
:10270000FDF732FE0121C9030148FDF72BFE10BD84
:102710000008004810B504210920C006FDF724FE7A
:10272000012149021A48FDF71DFEFF210131184819
:10273000FDF718FEFF2101310920C006FDF714FE48
:1027400008210920C006FDF70DFE012149031148AB
:10275000FDF70AFE40210E48FDF704FE80210C48DB
:10276000FDF700FE0121C9030A48FDF7FDFD012127
:1027700089030848FDF7F6FD012109030548FDF727
:10278000F1FD0121C9020920C006FDF7EBFD10BDD6
:10279000000800480004004810B580211B48FDF7E0
:1027A000E3FD10211948FDF7DDFD08211748FDF76D
:1027B000D9FD20211548FDF7D7FD40211348FDF72D
:1027C000D1FD0121C9030920C006FDF7CDFD01217E
:1027D00009030F48FDF7C6FD04210E48FDF7C2FDB1
:1027E0000121C9020A48FDF7BFFD012189020848FD
:1027F000FDF7B8FD012149020448FDF7B3FDFF21B3
:1028000001310248FDF7AEFD10BD00000004004894
:1028100000080048000C004810B510210920C0062F
:10282000FDF7A2FD80210920C006FDF79BFD1021C8
:102830001248FDF797FD40210920C006FDF794FDE1
:1028400020210920C006FDF78DFD0120FFF782FC45
:1028500001210B48FDF786FD20210848FDF782FD88
:1028600002210748FDF780FD04210548FDF77AFDA8
:1028700002210920C006FDF775FD10BD00080048C3
:1028800000040048FEF7D0F9FFF76EFEFFF7EAFEFE
:1028900000F07EF901201449087014E0012112486B
:1028A0000078FEF77DFBC820FFF740FE00210E48B0
:1028B0000078FEF775FB3220FFF738FE0A480078F3
:1028C000401C09490870084800781F28E6DBFDF71E
:1028D00061FD08E0FFF716FDFFF750FCFDF79DFCDA
:1028E0000520FFF72CFEF5E7520000200348407852
:1028F0000249887008460178C17070473E00002088
:10290000034840790249887108460179C1717047CE
:102910003E00002010B50C480078012812D10B4869
:10292000007800280EDD094800781F280ADA0848D8
:10293000017806480078FEF733FB00200249087052
:10294000FFF7C6FD10BD0000480000204600002033
:102950004700002010B50C480078012812D10B4820
:10296000007804280EDA0948007800280ADD0848B3
:10297000017806480078FEF7C7F800200249087081
:10298000FFF7A6FD10BD00004A000020490000200E
:102990004E00002010B513480078012820D11248BD
:1029A0000078012811D111480078002818DD0F485F
:1029B0000078092814DA0D480078FDF7EFFC0020B4
:1029C00008490870FFF784FD0AE0074800780228EC
:1029D00006D1FDF7DFFC002002490870FFF778FD03
:1029E00010BD00004D0000204C0000204B000020D6
:1029F00010B50C480078012812D10B480078042843
:102A00000EDA0948007800280ADD084801780648EF
:102A10000078FDF7C1FB002002490870FFF758FD60
:102A200010BD0000510000204F0000205000002089
:102A300030B504460025ED430AE000F099F805465C
:102A4000681C002800D104E0E9B2606800F06AF870
:102A5000F3E700BF30BDF8B504460D4626460AE050
:102A600000F020F80746781C002800D105E03770F8
:102A7000761C6D1E00BF002DF2D100BF301B0090F0
:102A80000098F8BD70B503460C4600261D4604E0CC
:102A9000287800F085F86D1C641E002CF8D1EE1A21
:102AA000304670BD0020C04308494988074A128853
:102AB00091420AD005494988054A505C0349498832
:102AC000491C8905890D014A518070475C0400202A
:102AD0005C00002010B50D4C0D480E4948600E48B2
:102AE000886008460460012189020948FDF737FB28
:102AF00000200A4908804880012189020648FDF724
:102B00002EFB002006490880488010BD24000020CC
:102B10005C00002064080020600400205C040020A9
:102B2000600800200122920282181288815401223A
:102B3000920282181288521C9205920D01239B0268
:102B4000C3181A80012292028218128801239B0264
:102B5000C3185B889A420AD10122920282185288D5
:102B6000521C9205920D01239B02C3185A80704794
:102B70000020C0430549C96920221140002903D023
:102B8000024920318988C8B27047000000380140EE
:102B900010B5FEF7E9F8FDF72DFEFFF79BFF10BD1E
:102BA000014600BF0548C069802210400028F9D0C6
:102BB00002482030018101207047000000380140A8
:102BC000E02B0008000000205C0000000E2500083B
:102BD0003C2C00085C000020440E00001E2500086C
:102BE00000000000010203040102030406070809B3
:102BF000006CDC0200000000000000000102030481
:102C000006070809003801401B0000000000000012
:102C100000000000000000000000000000000000B4
:102C200000000000000000000000000000000000A4
:0C2C30000000000000000000B80B0000D5
:04000005080000B936
:00000001FF
