:020000040800F2
:10000000A80E0020CD000008E30A000869060008D9
:1000100000000000000000000000000000000000E0
:10002000000000000000000000000000170F0008A2
:1000300000000000000000003D0C00083510000822
:10004000FD00000800000000FD000008FD000008A1
:10005000FD000008FD000008FD000008FD0000088C
:1000600000000000FD000008FD000008FD00000881
:10007000FD000008FD000008FD0000080000000071
:10008000FD000008FD000008FD000008FD0000085C
:10009000FD000008FD000008FD000008FD0000084C
:1000A000FD000008FD000008FD000008ED1000083C
:1000B000FD000008FD0000080348854600F076F8C2
:1000C00000480047A1240008A80E00200C4880F337
:1000D00008880C480168090E0B4A914205D10B486B
:1000E0000B4901600B480C4901600C4880470C48E3
:1000F0000047FEE7FEE7FEE7FEE7FEE7FEE700005B
:10010000A80E0020040000001F000000181002408C
:100110000100000000000140000000007110000814
:10012000B900000830B50B4601460020202201240A
:1001300009E00D46D5409D4205D31D469540491B1B
:100140002546954040191546521E002DF1DC30BD64
:1001500070B500242546002801DA01244042002918
:1001600001DA01254942FFF7DDFFAC4200D04042F1
:10017000002C00D0494270BDD2B201E00270401C98
:10018000491EFBD270470022F6E710B513460A4617
:1001900004461946FFF7F0FF204610BD421C0178C7
:1001A000401C0029FBD1801A70470000064C012535
:1001B000064E05E0E36807CC2B430C3C984710340F
:1001C000B442F7D3FFF77CFF4C2A00086C2A0008E2
:1001D00070B505460C46012D04D0022D1FD0032D0D
:1001E00055D139E0002C0BD10720C00101F0AAFF46
:1001F000FF20284948710021062000F0B9FB0AE0E1
:100200000720C00101F0E6FF0120224948710121C9
:10021000062000F0ADFB012000F0F4FC38E0002CDB
:100220000BD1FF20213001F08DFFFF2019494871CB
:100230000021072000F09CFB0AE0FF20213001F0A4
:10024000C9FF0220134948710121072000F090FBEB
:10025000002000F0D7FC1BE0002C0AD1042001F0A4
:1002600071FFFF200B4948710021082000F080FB3E
:1002700009E0042001F0AEFF032006494871012186
:10028000082000F075FB002000F0BCFC00E000BF7F
:1002900000BF70BD4900002010B509480078002853
:1002A0000BD108480078002807D1074800780028BB
:1002B00003D106480078002801D002F0ABF910BD48
:1002C000520000205B000020540000205700002056
:1002D0001CB511480090012168460171002181710F
:1002E000032141710121C17169460920C00600F056
:1002F0001FF80A4800906946094800F019F80948B3
:1003000000906946084800F013F804200090694600
:10031000064800F00DF81CBDFF990000FFF3000037
:1003200000040048FFFF000000080048000C0048DF
:10033000F0B50A4600210023002400BF3DE001255E
:100340008D402B4615681D402C469C4234D11579B2
:10035000012D02D01579022D16D185684F00032694
:10036000BE40B543856055794E00B540866835433B
:100370008560858801268E40B5438580858896797D
:100380008E40B6B23543858005684F000326BE40D7
:10039000B543056015794E00B540066835430560E4
:1003A000C5684F000326BE40B543C560D5794E00F1
:1003B000B540C6683543C560491C1029BFD3F0BDA0
:1003C000F0B5002300244D07EE0E1546B5402B4630
:1003D000CD10AE0005462035AD594E07F70E0F265D
:1003E000BE40B543CE10B60007462037BD51CD10F4
:1003F000AE003D46AD591D432C46CD10AD003E46E6
:100400007451F0BD018570478161704710B5044695
:10041000002C04D1FF20413001F094FE03E0FF20C6
:10042000413001F0D7FE002000F0ECFB10BD0000D1
:1004300010B501F04FFFFF200149087010BD00000A
:100440004900002010B50446230001F0C4FD09CE88
:100450001D06344B98B37D62CE0000F0E7F8022110
:100460006348FFF7D1FF01216148FFF7CBFF04216B
:100470005F48FFF7C9FF01210920C006FFF7C4FF4D
:1004800002205C490870B1E000F0D0F80221584821
:10049000FFF7BAFF01215648FFF7B6FF0421544881
:1004A000FFF7B2FF01210920C006FFF7ABFF0120D3
:1004B000504908709AE000F0B9F802214C48FFF763
:1004C000A1FF01214A48FFF79FFF04214848FFF799
:1004D00099FF01210920C006FFF794FF0320454939
:1004E000087083E000F0A2F802214148FFF78AFF7C
:1004F00001213F48FFF788FF04213D48FFF782FFB5
:1005000001210920C006FFF77FFF04203949087048
:100510006CE000F071F8012109030920C006FFF723
:1005200073FF012149033248FFF76CFF0121890362
:100530002F48FFF769FF0121C9032D48FFF764FF2A
:1005400008202C49087051E000F056F801210903F9
:100550000920C006FFF758FF012149032448FFF78F
:1005600053FF012189032248FFF74EFF0121C903F0
:100570001F48FFF747FF07201E49087036E000F0CC
:100580003BF8012109030920C006FFF73BFF0121C9
:1005900049031748FFF738FF012189031448FFF783
:1005A00031FF0121C9031248FFF72CFF0520114933
:1005B00008701BE000F020F8012109030920C006A3
:1005C000FFF720FF012149030948FFF71DFF012123
:1005D00089030748FFF716FF0121C9030448FFF705
:1005E00013FF06200349087000E000BF00BF10BDE4
:1005F000000800484900002010B508210A48FFF70C
:1006000003FF02210848FFF7FDFE01210648FFF71E
:10061000F9FE04210448FFF7F7FE01210920C00676
:10062000FFF7F0FE10BD00000008004810B50821DB
:100630000C48FFF7E7FE012109030920C006FFF778
:10064000E1FE012149030748FFF7DCFE0121890390
:100650000448FFF7D9FE0121C9030248FFF7D2FE83
:1006600010BD00000008004800BFFEE71CB50121D6
:10067000880400F0E5FA0320800200900221684619
:100680000171012181710021C1710321417169460C
:100690000648FFF74DFE01220A210448FFF790FEAD
:1006A00001220B210148FFF78BFE1CBD000400480E
:1006B000FFB581B0054616461F46012000034D498F
:1006C00008600DE04B4801680068401E494A106010
:1006D000002905D148A002F09BF8012005B0F0BD2B
:1006E0000121C903484800F0E7F80028EAD10120B9
:1006F0004003C302012229460090434800F022F93A
:10070000012000033B4908600CE03A48016800689A
:10071000401E384A1060002904D13CA002F078F84D
:100720000120DBE70221384800F0C6F80028ECD0B1
:100730003548029900F004F9012000032D490860B2
:100740000CE02C4801680068401E2A4A106000290D
:1007500004D133A002F05CF80120BFE780212A48D1
:1007600000F0AAF80028ECD0002001235B063246F6
:1007700029460090244800F0E5F800241DE00120FF
:1007800000031C4908600CE01A4801680068401E1C
:10079000184A1060002904D126A002F039F801207F
:1007A0009CE70221184800F087F80028ECD0395D5A
:1007B000154800F0C5F8601CC4B2B442DFDB01206C
:1007C00000030C4908600CE00A4801680068401EFC
:1007D000084A1060002904D11CA002F019F8012079
:1007E0007CE72021084800F067F80028ECD00020C2
:1007F00074E70000380000200D0A69326320697335
:100800002062757379000000005800400D0A6932BB
:100810006320747869732069732077726F6E670044
:100820000D0A693263207463722069732077726FD6
:100830006E6700000D0A6932632074786973322094
:1008400069732077726F6E67000000000D0A6932CD
:10085000632073746F70662069732077726F6E67A0
:1008600000000000002904D0026801231A4302603E
:1008700003E00268520852000260704700B587B07A
:100880000121880500F0ECF900200390069001900A
:10089000029004900590064800906946054800F0D3
:1008A00019F801210348FFF7DDFF07B000BD000084
:1008B0003625B2400058004010B502460023002003
:1008C00093691C460C402346002B01D0012000E018
:1008D000002010BD10B50A46002103685B085B00CC
:1008E00003600168144B1940946824025368234341
:1008F000194301600F2424061368A34303610368AE
:1009000001242343036000218160C160146993695D
:1009100023431946816083680124E40323438360F1
:10092000D16803680B4303604168044B1940536965
:100930001943416010BD0000FFE0CF00FF7FFF07BB
:1009400081627047F0B50C4600214168074D29408F
:10095000A505AD0D1604FF273F043E4035431D435A
:10096000059E354329434160F0BD0000009800FC1E
:1009700070B505460C462B0001F02DFB0C07162523
:100980003443505D6C7A8796A3B0002C04D11920B3
:10099000400101F0D7FB03E01920400101F01AFCEF
:1009A000012000F02FF99AE0002C04D13120000141
:1009B00001F0C8FB03E03120000101F00BFC012035
:1009C00000F020F98BE0002C04D1FF20093001F069
:1009D000B9FB03E0FF20093001F0FCFB002000F030
:1009E00011F97CE0002C04D1FF20053001F0AAFBB6
:1009F00003E0FF20053001F0EDFB002000F002F9DC
:100A00006DE0002C03D1102001F09CFB02E01020CF
:100A100001F0E0FB002000F0F5F860E0002C03D1CD
:100A2000202001F08FFB02E0202001F0D3FB00200A
:100A300000F0E8F853E0002C04D16120C00001F080
:100A400081FB03E06120C00001F0C4FB012000F045
:100A5000D9F844E0002C03D1012001F073FB03E03E
:100A60006120C00001F0B6FB002000F0CBF836E0BA
:100A7000002C03D1402001F065FB02E0402001F092
:100A8000A9FB002000F0BEF829E0002C04D1C12011
:100A9000800001F057FB03E0C120800001F09AFBC9
:100AA000012000F0AFF81AE0002C03D1022001F081
:100AB00049FB02E0022001F08DFB002000F0A2F8CB
:100AC0000DE0002C03D1802001F03CFB02E08020EF
:100AD00001F080FB002000F095F800E000BF00BFAF
:100AE00070BD704700218278002A27D0184A03235E
:100AF0001B02D21803789B109B00D15802789207F2
:100B0000D30EFF229A400B46934319464278920730
:100B1000120E03789B07DB0E9A4011430C4A032305
:100B20001B02D21803789B109B00D1500278D30689
:100B3000DB0E01229A40064B1A6007E00278D306CA
:100B4000DB0E01229A40024B80331A60704700008E
:100B500000E100E010B5002819DA1A4A03071B0F5C
:100B6000083B9B089B00D2588307DC0EFF23A34061
:100B70009A438B071B0E8407E40EA3401A43114BC4
:100B80000407240F083CA408A4001A5118E00E4AD8
:100B900003231B02D21883089B00D2588307DC0E64
:100BA000FF23A3409A438B071B0E8407E40EA34048
:100BB0001A43054B032424021B198408A4001A516C
:100BC00010BD00001CED00E000E100E008B51B21B5
:100BD000684601700021417001218170FFF782FF9A
:100BE00008BD000010B50446054B02220621204630
:100BF000FFF75EFD012800D110BD0020FCE70000DA
:100C00003C00002010B50446002C08D10A4B0222FB
:100C100011464020FFF74CFD01280AD110BD064BBC
:100C20009B1C022211464820FFF742FD012800D1FB
:100C3000F4E70020F2E700004500002070470000C4
:100C4000002905D0054A52690243044B5A6104E069
:100C5000024A52698243014B5A61704700100240B8
:100C6000002905D0054AD2690243044BDA6104E049
:100C7000024AD2698243014BDA6170470010024098
:100C8000002905D0054A92690243044B9A6104E0A9
:100C9000024A92698243014B9A61704700100240F8
:100CA00010B501210F204004FFF7CAFF10BD00005E
:100CB000FEB5044600250026002001900090002784
:100CC000504840680C2108400546002D04D0042DF2
:100CD00005D0082D28D105E04B48206027E04A4880
:100CE000206024E0474840680F21890408400646F8
:100CF000444840680121090408400190B00C861C5A
:100D00000198002803D14148704320600BE03D4822
:100D1000C06A0007000F401C00903B480099FFF795
:100D200001FA7043206002E03748206000BF00BF36
:100D300034484068F021084005462D093448475D95
:100D40002068F84060602F48406807210902084089
:100D500005462D0A2E48475D6068F840A060294886
:100D6000006BFF2101310840884202D02948E06031
:100D70000DE024484068012189030840884203D0DF
:100D8000A0684008E06002E0A0688008E0601D48BC
:100D9000006B40210840402802D01F48206102E03B
:100DA0000120C00320611748006B10210840102863
:100DB00002D01548606101E0206860611148006B55
:100DC0008007800F002802D1A068A06119E00D48BB
:100DD000006B8007800F012802D12068A06110E01D
:100DE0000848006B8007800F022802D18003A061B1
:100DF00007E00448006B8007800F032801D10248F8
:100E0000A061FEBD0010024000127A0000093D0002
:100E100000000020809FD5001280000010B504461D
:100E2000002C0BD1FF20113001F08CF9FF200B4971
:100E3000887100210A20FFF79BFD0AE0FF20113096
:100E400001F0C8F902200549887101210A20FFF745
:100E50008FFD0020FFF7D6FE10BD000049000020E6
:100E600010B50446002C0AD1082001F06BF9FF20D0
:100E70000A49887100210B20FFF77AFD09E008205C
:100E800001F0A8F903200549887101210B20FFF723
:100E90006FFD0020FFF7B6FE10BD000049000020E6
:100EA00010B50446002C0BD10D20800101F04AF949
:100EB000FF200B49887100210920FFF759FD0AE046
:100EC0000D20800101F086F901200549887101217A
:100ED0000920FFF74DFD0120FFF794FE10BD000033
:100EE0004900002070B505460C46012D04D0022DA6
:100EF00006D0032D0CD107E02046FFF7D1FF08E014
:100F00002046FFF78BFF04E02046FFF7A9FF00E033
:100F100000BF00BF70BD70470CB50020019000906D
:100F2000314800680121090408432F49086000BFC7
:100F30002D48006801214904084000900198401C98
:100F400001900098002804D10521090201988842E7
:100F5000EED125480068012149040840002802D04C
:100F60000120009001E0002000900098012839D174
:100F700011201E4908601C4840681B49486008460B
:100F800040684860084640683F2109048843164984
:100F90004860084640681121090408431249486026
:100FA000084600680121090608430F49086000BF90
:100FB0000D4800680121490608400028F8D00A4879
:100FC000406880088000084948600846406802215F
:100FD00008430549486000BF034840680C210840A9
:100FE0000828F9D10CBD000000100240002002408A
:100FF00010B57D21C9000C480068FFF793F804463E
:10100000601E0A49884200D90CE0601E0849486108
:101010000321081FFFF79EFD002005498861072076
:10102000086100BF10BD000010000020FFFFFF009E
:1010300000E000E00B4800680B49884205D20948EF
:101040000068401C0749086002E00020054908606C
:1010500006480088002804D004480088401E034940
:101060000880704760000020FFFF8F0064000020B0
:1010700010B51B480068012108431949086008465B
:1010800040681849084016494860084600681649F3
:101090000840134908600846006801218904884314
:1010A0000F490860084640683F21090488430C49FD
:1010B00048600846C06A00090001C8620846006B23
:1010C000FF2154318843064908630846406B4008B5
:1010D0004000486300208860FFF71EFF10BD00003D
:1010E000001002400CB8FFF8FFFFF6FE10B50C49E7
:1010F0000C4800F076F8002806D00B4801F0E8FA1A
:101100000749084800F058F80849064800F069F80F
:10111000002803D00549034800F04EF810BD000038
:101120000501050000380140700800200601060096
:1011300000B589B001214804FFF782FD0121880331
:10114000FFF79EFD01220921C806FFF739F90122A8
:101150000A210920C006FFF733F903204002079057
:10116000022108A801700321417000218170012132
:10117000C17007A90920C006FFF7DAF8E120400294
:101180000190002002900390049006900C2005909E
:1011900001A9074800F06EF801220649044800F052
:1011A00047F80121024800F010F809B000BD000026
:1011B000003801400501050010B5002300220B0C8A
:1011C00001249C402246026210BD002904D002681E
:1011D00001231A43026003E00268520852000260D1
:1011E000704770B502460B46002400210025002000
:1011F0001E04350ED9B201268E403146012D02D192
:101200001668314006E0022D02D15668314001E0F7
:10121000966831401C0C0126A6403446D6693440FD
:10122000002903D0002C01D0012000E0002070BD77
:10123000F8B5034600240026009600250020184635
:101240000E04340ECEB200960127009EB7403D46F4
:10125000022C01D1001D02E0032C00D10830002A2D
:1012600003D006682E43066002E00668AE430660BF
:10127000F8BD0000F0B589B005460E4600240020F8
:10128000089000BF00BF28684008400028606C68D4
:1012900003210903204688430446B06804436C6078
:1012A0002C682F480440F16870680843316908438E
:1012B00004432C60AC68032109022046884304469D
:1012C00070690443AC606846FFF7F2FC254885422C
:1012D00002D10698089001E0029808902868012140
:1012E000C9030840002809D0326851001923089A20
:1012F0005A431046FEF716FF074608E03268910091
:101300001923089A5A431046FEF70CFF074664213A
:101310003846FEF707FF0401200964214843381AC4
:10132000079028680121C903084000280AD00799BE
:10133000C900084632306421FEF7F4FE4007400F32
:10134000044309E007990901084632306421FEF799
:10135000E9FE0007000F0443AC8109B0F0BD0000B6
:10136000F3E9FFFF0038014070B504460E46002E39
:1013700003D0204601F0FCFA25E01348C078A042D3
:1013800003D011480079A0421DD1204601F0CAFACD
:10139000142000F03DFE0021204601F06DFA601E91
:1013A0000521FEF7D5FE451CE80F4019401040000E
:1013B000281A04D0FF200449C870487003E0FF20B9
:1013C00001490871887070BD4900002070B505465C
:1013D0000C462B0000F0FFFD060412162434425088
:1013E000002C05D102210920C006FFF70BF804E00C
:1013F00002210920C006FFF707F83EE060B2FFF7C0
:1014000005F83AE0002C05D1012109031C48FEF73C
:10141000F9FF04E0012109031948FEF7F5FF2CE06C
:10142000002C06D10121C9020920C006FEF7EAFFFF
:1014300005E00121C9020920C006FEF7E5FF1CE016
:10144000002C05D1FF2101310D48FEF7DBFF04E040
:10145000FF2101310A48FEF7D7FF0EE0002C05D12D
:10146000012149020648FEF7CDFF04E001214902AF
:101470000348FEF7C9FF00E000BF00BF70BD0000D9
:101480000004004810B580210948FEF7BDFF102177
:101490000748FEF7B7FF08210548FEF7B3FF2021F4
:1014A0000348FEF7B1FF40210148FEF7ABFF10BD36
:1014B0000004004810B50121C9030920C006FEF749
:1014C000A3FF012109030948FEF79CFF04210848F6
:1014D000FEF798FF0121C9020448FEF795FF01219C
:1014E00089020248FEF78EFF10BD00000008004888
:1014F000000C004810B504210920C006FEF784FF47
:10150000012149020948FEF77DFFFF21013107480B
:10151000FEF778FFFF2101310920C006FEF774FFB6
:1015200008210920C006FEF76DFF10BD0008004825
:1015300010B510210920C006FEF766FF80210920A2
:10154000C006FEF75FFF10210648FEF75BFF402153
:101550000920C006FEF758FF20210920C006FEF72B
:1015600051FF10BD0008004810B5012000F066FBD7
:1015700001210848FEF746FF20210748FEF742FFF9
:1015800002210448FEF740FF04210248FEF73AFF1B
:1015900010BD0000000400480008004810B50121FB
:1015A00049030B48FEF730FF40210A48FEF72AFFA7
:1015B00080210848FEF726FF0121C9030448FEF7F1
:1015C00023FF012189030248FEF71CFF10BD000024
:1015D000000400480008004810B5044620460B38B7
:1015E000030000F0F8FC05432E0419586D0080211B
:1015F0003548FEF709FF10213348FEF705FF0821A3
:101600003148FEF7FFFE20212F48FEF7FDFE402166
:101610002D48FEF7F9FE54E080212B48FEF7F4FE3A
:1016200010212948FEF7F0FE08212748FEF7ECFEBE
:1016300020212548FEF7E8FE40212348FEF7E2FE80
:101640003FE080212048FEF7DFFE10211E48FEF714
:10165000D9FE08211C48FEF7D7FE20211A48FEF7C4
:10166000D1FE40211848FEF7CDFE2AE08021164821
:10167000FEF7CAFE10211448FEF7C4FE08211248E6
:10168000FEF7C2FE20211048FEF7BCFE40210E48A6
:10169000FEF7BAFE15E080210B48FEF7B3FE1021DD
:1016A0000948FEF7AFFE08210748FEF7ABFE2021F0
:1016B0000548FEF7A9FE40210348FEF7A3FE00E01F
:1016C00000BF00BF10BD00000004004810B5044674
:1016D00020461038030000F07EFC055238041E6CD2
:1016E00086000121C9030920C006FEF78DFE0121F5
:1016F00009033E48FEF788FE04213D48FEF782FEBE
:101700000121C9023948FEF77FFE012189023748CD
:10171000FEF77AFE68E00121C9030920C006FEF742
:1017200073FE012109033148FEF76EFE04213048A3
:10173000FEF76AFE0121C9022C48FEF765FE012171
:1017400089022A48FEF75EFE4EE00121C903092006
:10175000C006FEF759FE012109032448FEF752FE98
:1017600004212348FEF750FE0121C9021F48FEF75D
:1017700049FE012189021D48FEF744FE34E00121A3
:10178000C9030920C006FEF73FFE012109031748DF
:10179000FEF738FE04211648FEF736FE0121C90285
:1017A0001248FEF72FFE012189021048FEF72CFE99
:1017B0001AE00121C9030920C006FEF723FE01211A
:1017C00009030A48FEF71EFE04210948FEF71AFE27
:1017D0000121C9020548FEF717FE012189020348CD
:1017E000FEF710FE00E000BF00BF10BD000800487B
:1017F000000C004810B50446230000F0ECFB068BFB
:10180000553A041F708B04210920C006FEF7FCFD29
:10181000012149024148FEF7F7FDFF2101313F4810
:10182000FEF7F0FDFF2101310920C006FEF7ECFDB7
:1018300008210920C006FEF7E7FD6CE0042109201D
:10184000C006FEF7E1FD012149023448FEF7DCFD48
:10185000FF2101313148FEF7D7FDFF210131092079
:10186000C006FEF7D1FD08210920C006FEF7CAFD1B
:1018700051E004210920C006FEF7C6FD01214902FE
:101880002648FEF7BFFDFF2101312448FEF7BCFDCD
:10189000FF2101310920C006FEF7B4FD082109200F
:1018A000C006FEF7AFFD36E004210920C006FEF7B2
:1018B000ABFD012149021948FEF7A4FDFF210131CA
:1018C0001648FEF7A1FDFF2101310920C006FEF7F1
:1018D00099FD08210920C006FEF796FD1BE00421B2
:1018E0000920C006FEF78EFD012149020B48FEF7D4
:1018F00089FDFF2101310948FEF784FDFF210131F7
:101900000920C006FEF780FD08210920C006FEF769
:1019100079FD00E000BF00BF10BD000000080048D6
:1019200010B5044620461538030000F054FB054F5F
:1019300036041D68810010210920C006FEF764FDF1
:1019400080210920C006FEF75FFD10213A48FEF70E
:1019500059FD40210920C006FEF756FD202109202F
:10196000C006FEF751FD64E010210920C006FEF715
:101970004BFD80210920C006FEF746FD10212E48B0
:10198000FEF742FD40210920C006FEF73DFD202163
:101990000920C006FEF736FD4BE010210920C006E5
:1019A000FEF732FD80210920C006FEF72BFD102135
:1019B0002148FEF729FD40210920C006FEF722FD3F
:1019C00020210920C006FEF71DFD32E0102109206C
:1019D000C006FEF719FD80210920C006FEF712FDA2
:1019E00010211548FEF710FD40210920C006FEF722
:1019F00009FD20210920C006FEF706FD19E010218F
:101A00000920C006FEF7FEFC80210920C006FEF773
:101A1000F9FC10210848FEF7F5FC40210920C0061A
:101A2000FEF7F2FC20210920C006FEF7EBFC00E0E7
:101A300000BF00BF10BD00000008004810B50446FC
:101A400020461A38030000F0C6FA05402C0418544A
:101A50006800012000F0F2F801213148FEF7D4FCC3
:101A600020213048FEF7CEFC02212D48FEF7CCFCA9
:101A700004212B48FEF7C8FC50E0012000F0DEF8FE
:101A800001212748FEF7C0FC20212648FEF7BCFCB8
:101A900002212348FEF7B8FC04212148FEF7B2FCDE
:101AA0003CE0012000F0CAF801211D48FEF7AAFC25
:101AB00020211C48FEF7A8FC02211948FEF7A2FCD1
:101AC00004211748FEF79EFC28E0012000F0B6F83C
:101AD00001211348FEF796FC20211248FEF794FCE2
:101AE00002210F48FEF78EFC04210D48FEF78CFC06
:101AF00014E0002000F0A2F801210948FEF782FC62
:101B000020210848FEF77EFC02210548FEF77CFCF8
:101B100004210348FEF776FC00E000BF00BF10BDC3
:101B2000000400480008004810B50446A01F030048
:101B300000F051FA054C34041C647C000121490377
:101B40003C48FEF761FC40213B48FEF75DFC8021EC
:101B50003948FEF757FC0121C9033648FEF754FC0B
:101B6000012189033348FEF74FFC60E0012149035E
:101B70003048FEF749FC40212F48FEF745FC802104
:101B80002D48FEF741FC0121C9032A48FEF73CFC21
:101B9000012189032748FEF735FC48E0012149036C
:101BA0002448FEF731FC40212348FEF72BFC80211E
:101BB0002148FEF729FC0121C9031E48FEF722FC3B
:101BC000012189031B48FEF71DFC30E00121490378
:101BD0001848FEF719FC40211748FEF713FC802136
:101BE0001548FEF711FC0121C9031248FEF70AFC53
:101BF000012189030F48FEF707FC18E00121490382
:101C00000C48FEF7FFFB40210B48FEF7FBFB802151
:101C10000948FEF7F7FB0121C9030648FEF7F4FB6C
:101C2000012189030348FEF7EDFB00E000BF00BF80
:101C300010BD0000000400480008004810B504462C
:101C4000002C04D1FF20813000F07CFA03E0FF205B
:101C5000813000F0BFFA0020FEF7D4FF10BD000075
:101C600010B551484078002800D110BD4F48018878
:101C70004F4A881A914252D00CDC4E48081800286E
:101C800011D001281ED0FF380138002829D00128A2
:101C90007ED135E0012851D0FF380138002858D0D6
:101CA000012875D164E0414800794349087001205A
:101CB0004249087042480078002802D1012040497A
:101CC000087066E0394800793B49087000203B49BC
:101CD00008703B480078002802D10120384908707C
:101CE00057E03248007937490870012036490870BA
:101CF00036480078002802D101203449087048E0B5
:101D00002A4800792F49087000202F4908702F4871
:101D10000078002802D101202C49087039E02348BE
:101D200000792B49087001202A4908702A48007858
:101D3000002802D10120284908702AE00020254906
:101D4000087025480078002802D101202249087037
:101D50001FE01648007921490870012020490870C9
:101D600020480078002802D101201E49087010E0A8
:101D70000E4800791949087000201949087019485F
:101D80000078002802D101201649087001E0FFE721
:101D900000BF00BF812189000448FEF7F4F9024822
:101DA0000021018000BF60E72E000020980800207D
:101DB00001F30000FF0EFFFF500000205100002043
:101DC0005200002053000020580000205400002042
:101DD0005500002056000020570000205900002028
:101DE0005A0000205B00002008B5002000906A48DF
:101DF0006A490880CDE06A484078012800D1C9E0EE
:101E000066480088002803D1012065494870C1E078
:101E10000121684600F06FFC002800D1BAE060485C
:101E20000078030000F0D7F805041528496FA300D7
:101E300068460078562808D159480078401C58490F
:101E4000087000205749088002E00120544948707A
:101E50009EE068460078AA2808D151480078401CC6
:101E60004F49087000204F49088004E001204C4988
:101E70004870002008708BE068460078F0280ADD82
:101E80006846007800024849088045480078401CB0
:101E90004349087010E0812189004448FEF773F936
:101EA000002041490880424908803E4908800120BD
:101EB0003B494870002008706AE03B48008869464A
:101EC000097808433849088008460088374908805F
:101ED00033480078401C3249087034480088002894
:101EE00010D1812189003148FEF74DF900202E499B
:101EF00008802F4908802B49088001202849487014
:101F00000020087044E06846007800280FDD68462D
:101F10000078CC280BD068460178224802880088D7
:101F2000401C204B18802148001D81541EE068464B
:101F30000078CC280BD100201B4908801C49088060
:101F40001849088016490870012048700EE0812168
:101F500089001648FEF717F9002013490880114937
:101F6000088001200E4948700020087010E081218F
:101F700089000E48FEF707F900200B4908800C493C
:101F8000088008490880064908700120487000BF91
:101F900000BF30E700BF08BDB80B000064000020A0
:101FA0002E0000203600002032000020980800207B
:101FB0003400002000B5A1B0802101A8FEF7E3F8AD
:101FC000AA2168460171BB214171022101A800F0DC
:101FD000A9FB21B000BD30B47446641E2578641C92
:101FE000AB4204D3635D5B00E31830BC18471D4669
:101FF000F8E702E008C8121F08C1002AFAD17047AA
:102000007047002001E001C1121F002AFBD1704778
:1020100010B504467D21C9006143084600F001F86F
:1020200010BD70B5044600253021614308460721E4
:10203000FEF778F8064600BF681C0546B04200D996
:1020400070BDF9E710B5044626480078A04248D094
:10205000FF2C03D12046FEF7F5F942E02148C07875
:10206000FF2812D01F49C87800F05CFC1420FFF74D
:10207000CFFF1C49C878002100F0FEFB1420FFF7B9
:10208000C7FFFF201749C870487016480079FF281D
:1020900012D01449087900F045FC1420FFF7B8FF6E
:1020A00010490879002100F0E7FB1420FFF7B0FF8A
:1020B000FF200C49087188700A484079FF2804D035
:1020C000084948790021FEF783F806488079FF28FF
:1020D00004D0044988790021FEF704FF2046FEF76A
:1020E000B1F910BD4900002010B5FEF7BFFA0BA0F2
:1020F00000F08EFBFEF7C2FB0DA000F089FB00F0A4
:10210000B3F84020FEF76EFD0020FEF77BFD48206F
:10211000FEF768FD0120FEF775FD10BD0D0A69325E
:1021200063206770696F206973206F6B0000000087
:102130000D0A69326320636F6E66696720697320D8
:102140006F6B00000112002906D001291DD0022961
:1021500021D0032938D124E0C1B2012908D0C1B26D
:10216000022905D0C1B2042902D0C1B2082906D182
:1021700017490978C2B21143154A117004E0144995
:1021800009788143124A11701FE01149497881434F
:102190000F4A517019E00E49897881430C4A9170B9
:1021A00013E0C1B2042902D0C1B2082906D10849FE
:1021B000C978C2B21143064AD17004E00449C97813
:1021C0008143034AD17000E000BF00BF70470000A8
:1021D000450000200112002906D001291DD0022946
:1021E00022D003293AD126E0C1B2012908D0C1B2D8
:1021F000022905D0C1B2042902D0C1B2082905D1F3
:10220000184909788143174A117005E01549097882
:10221000C2B21143134A117021E012494978C2B287
:102220001143104A51701AE00E498978C2B2114325
:102230000C4A917013E0C1B2042902D0C1B208293E
:1022400005D10849C9788143064AD17005E005499E
:10225000C978C2B21143034AD17000E000BF00BF89
:102260007047000045000020C3200449087000208A
:10227000487088700C210148C170704745000020EB
:1022800010B5FEF70DFDFEF723F800F023F800F07F
:102290004FF800F08FF800F0CDF8012109030C4849
:1022A000FEF7B0F80121C9020920C006FEF7AAF81E
:1022B000FF2101310648FEF7A5F801214902044833
:1022C000FEF7A0F802210920C006FEF79BF810BD1A
:1022D0000004004810B508211448FEF793F80221C5
:1022E0001248FEF78FF801211048FEF78BF8042101
:1022F0000E48FEF789F801210920C006FEF782F892
:10230000012109030920C006FEF77CF801214903D9
:102310000648FEF777F8012189030448FEF774F8B0
:102320000121C9030148FEF76DF810BD00080048FF
:1023300010B504210920C006FEF766F80121490204
:102340001A48FEF75FF8FF2101311848FEF75AF8E6
:10235000FF2101310920C006FEF756F808210920A7
:10236000C006FEF74FF8012149031148FEF74CF86B
:1023700040210E48FEF746F880210C48FEF742F84F
:102380000121C9030A48FEF73FF8012189030848E3
:10239000FEF738F8012109030548FEF733F801215B
:1023A000C9020920C006FEF72DF810BD000800483C
:1023B0000004004810B580211B48FEF725F81021C5
:1023C0001948FEF71FF808211748FEF71BF82021CF
:1023D0001548FEF719F840211348FEF713F80121BC
:1023E000C9030920C006FEF70FF8012109030F48B1
:1023F000FEF708F804210E48FEF704F80121C9028F
:102400000A48FEF701F8012189020848FDF7FAFFA2
:10241000012149020448FDF7F5FFFF21013102487F
:10242000FDF7F0FF10BD0000000400480008004860
:10243000000C004810B510210920C006FDF7E4FF8C
:1024400080210920C006FDF7DDFF10211248FDF7AD
:10245000D9FF40210920C006FDF7D6FF2021092021
:10246000C006FDF7CFFF0120FFF7E8FB01210B4875
:10247000FDF7C8FF20210848FDF7C4FF02210748E7
:10248000FDF7C2FF04210548FDF7BCFF022109202A
:10249000C006FDF7B7FF10BD000800480004004863
:1024A000FEF7A6FD00F0D0F9FF20F530FFF7B0FDF4
:1024B00019A000F0ADF96420FFF7AAFDFFF714FEA4
:1024C000FFF7DEFE01201849087014E001211648CC
:1024D0000078FEF749FFC820FFF79AFD0021124857
:1024E0000078FEF741FFC820FFF792FD0E48007804
:1024F000401C0D4908700C4800780B28E6DBFDF7FE
:1025000097FF08E0FFF770FCFFF7AAFBFDF7C4FE9A
:102510000520FFF786FDF5E70D0A757361727420DB
:102520006973206F6B0000005C00002010B50A4842
:10253000007800280EDD084800781F280ADA0748CE
:10254000017805480078FEF70FFF00200449087065
:10255000FFF730FD10BD00005000002051000020AA
:102560005200002010B50C480078012812D10B4809
:10257000007804280EDA0948007800280ADD0848A7
:10258000017806480078FEF7ADFC0020024908708B
:10259000FFF710FD10BD0000540000205300002084
:1025A0005800002010B509480078012805D1002006
:1025B00007490870FFF7FEFC06E0FDF739FF002031
:1025C00003490870FFF7F6FC10BD0000560000201C
:1025D0005700002010B50C480078012812D10B4894
:1025E000007804280EDA0948007800280ADD084837
:1025F000017806480078FDF7EBFD002002490870DD
:10260000FFF7D8FC10BD00005B000020590000203F
:102610005A00002010B522480078002811D0214827
:10262000007800280AD020490978481E0A21FDF7C1
:102630008FFD401CC4B22046FFF704FDFFF776FF74
:102640002CE01A48007800280AD0194800780028A1
:1026500003D018480078FFF7F5FCFFF7BBFF1DE03B
:102660001548007800280AD014480078002803D0C4
:1026700013480078FFF7E6FCFFF774FF0EE01148FF
:10268000007800280AD010480078002804D00F48AD
:102690000078FFF7D7FC01E0FFF784FF10BD0000D2
:1026A0005200002051000020500000205B0000205C
:1026B0005A0000205900002054000020580000203B
:1026C0005300002057000020560000205500002035
:1026D00030B504460025ED430AE000F0A5F80546B4
:1026E000681C002800D104E0E9B2606800F06AF8D4
:1026F000F3E700BF30BDF8B504460D4626460AE0B4
:1027000000F020F80746781C002800D105E037705B
:10271000761C6D1E00BF002DF2D100BF301B009053
:102720000098F8BD70B503460C4600261D4604E02F
:10273000287800F091F86D1C641E002CF8D1EE1A78
:10274000304670BD0020C04308494988074A1288B6
:1027500091420AD005494988054A505C0349498895
:10276000491C8905890D014A518070476804002081
:102770006800002010B50D4C0D480E4948600E4809
:10278000886008460460012189020948FDF7FBFCC6
:1027900000200A4908804880012189020648FDF787
:1027A000F2FC002006490880488010BD240000206B
:1027B00068000020700800206C04002068040020DD
:1027C0006C08002001229202821812888154012292
:1027D000920282181288521C9205920D01239B02CC
:1027E000C3181A80012292028218128801239B02C8
:1027F000C3185B889A420AD1012292028218528839
:10280000521C9205920D01239B02C3185A807047F7
:1028100070B504462046FDF7C1FCC5B229462046E6
:10282000FFF780FF70BD00000020C0430549C96963
:1028300020221140002903D0024920318988C8B2E2
:10284000704700000038014010B5FEF771FCFEF73C
:10285000BDF9FFF78FFF10BD014600BF0548C069F5
:10286000802210400028F9D0024820300181012048
:10287000704700000038014070B504460D46601EE8
:102880000521FDF765FCC6B229463046FEF79EFDE0
:1028900070BD000070B50446601E0521FDF758FCB0
:1028A000401CC5B22B00FFF796FB0729050B11173B
:1028B0001D23290021461431C8B2FFF731F81EE06C
:1028C00021461431C8B2FFF7B9F818E021460A3999
:1028D000C8B2FEF78FFF12E021460A39C8B2FFF7EF
:1028E00023F90CE021460A39C8B2FEF775FE06E06E
:1028F00021460A39C8B2FEF7E9FE00E000BF00BF7A
:102900002846E90F091849104900691A03D00448FC
:10291000C470457002E002480471857070BD00000B
:102920004900002070B50446601E0521FDF710FC2B
:10293000401CC5B22B00FFF74EFB071705080B0E16
:1029400011141700FEF7F4FD0FE0FEF70DFE0CE08A
:10295000FEF7D0FD09E0FEF721FE06E0FEF792FD4E
:1029600003E0FEF7A7FD00E000BF00BF70BD000060
:1029700070B50446601E0A21FDF7EAFB401CC6B292
:10298000601E0521FDF7E4FB401CC5B22E4800780F
:10299000B0424ED12C484078A8421DD12A48C07878
:1029A000A04250D02849C878FFF7BCFF1420FFF799
:1029B0002FFB2549C8780021FFF75EFF1420FFF7A1
:1029C00027FB01212046FFF757FF1420FFF720FBCC
:1029D0002046FFF75FFF36E01B488078A8421DD1F4
:1029E00019480079A0422ED017490879FFF79AFFBD
:1029F0001420FFF70DFB144908790021FFF73CFF75
:102A00001420FFF705FB01212046FFF735FF1420B6
:102A1000FFF7FEFA2046FFF73DFF14E001212046B4
:102A2000FFF72AFF1420FFF7F3FA2046FFF732FFE3
:102A300009E001212046FFF71FFF1420FFF7E8FA05
:102A40002046FFF727FF70BD490000206C2A0008D0
:102A50000000002068000000F21F0008D42A0008CF
:102A600068000020400E0000022000080000000066
:102A7000010203040102030406070809006CDC02DA
:102A8000000000000000000001020304060708091E
:102A9000003801401B0000000000000000000000A2
:102AA00000000000000000000000FFFFFEFEFCFC34
:102AB000F000000000FFFFFFFFFFFFFF000000002D
:102AC0000000000000000000000000000000000006
:042AD000B80B00003F
:04000005080000B936
:00000001FF
