:020000040800F2
:10000000900E0020CD000008DD040008D90400088F
:1000100000000000000000000000000000000000E0
:100020000000000000000000000000003909000886
:100030000000000000000000DF050008590A000869
:10004000FD00000800000000FD000008FD000008A1
:10005000FD000008FD000008FD000008FD0000088C
:1000600000000000FD000008FD000008FD00000881
:10007000FD000008FD000008FD0000080000000071
:10008000FD000008FD000008FD000008FD0000085C
:10009000FD000008FD000008FD000008FD0000084C
:1000A000FD000008FD000008FD000008110B00081D
:1000B000FD000008FD0000080348854600F05AF8DE
:1000C00000480047D91D0008900E00200C4880F31E
:1000D00008880C480168090E0B4A914205D10B486B
:1000E0000B4901600B480C4901600C4880470C48E3
:1000F0000047FEE7FEE7FEE7FEE7FEE7FEE700005B
:10010000900E0020040000001F00000018100240A4
:10011000010000000000014000000000950A0008F6
:10012000B900000830B50B4601460020202201240A
:1001300009E00D46D5409D4205D31D469540491B1B
:100140002546954040191546521E002DF1DC30BD64
:10015000D2B201E00270401C491EFBD2704700225F
:10016000F6E710B513460A4604461946FFF7F0FFB6
:10017000204610BD064C0125064E05E0E36807CC7D
:100180002B430C3C98471034B442F7D3FFF798FF49
:10019000BC200008DC20000810B501F05DFE01F075
:1001A0007BFE01F095FE10BD1CB5114800900121A9
:1001B0006846017100218171032141710121C171E2
:1001C00069460920C00600F01DF80A4800906946FB
:1001D000094800F017F8074800906946074800F002
:1001E00011F8042000906946054800F00BF81CBD8A
:1001F000FF990000FFFF00000004004800080048CD
:10020000000C0048F0B50A4600210023002400BF7E
:100210003DE001258D402B4615681D402C469C4233
:1002200034D11579012D02D01579022D16D18568AA
:100230004F000326BE40B543856055794E00B5405A
:10024000866835438560858801268E40B543858064
:10025000858896798E40B6B23543858005684F0013
:100260000326BE40B543056015794E00B5400668CB
:1002700035430560C5684F000326BE40B543C560E1
:10028000D5794E00B540C6683543C560491C102974
:10029000BFD3F0BDF0B5002300244D07EE0E154688
:1002A000B5402B46CD10AE0005462035AD594E0762
:1002B000F70E0F26BE40B543CE10B60007462037D6
:1002C000BD51CD10AE003D46AD591D432C46CD105D
:1002D000AD003E467451F0BD0185704781617047A5
:1002E00010B501F08BFC10BD10B50446230001F0E1
:1002F00040FC09B61A062E42869E6E56B60000F0E5
:10030000CDF802215748FFF7E9FF01215548FFF7D3
:10031000E3FF04215348FFF7E1FF01210920C00654
:10032000FFF7DCFF9CE000F0B9F802214D48FFF731
:10033000D5FF01214B48FFF7D1FF04214948FFF7C2
:10034000CDFF01210920C006FFF7C6FF88E000F0BD
:10035000A5F802214348FFF7BFFF01214148FFF7FD
:10036000BDFF04213F48FFF7B7FF01210920C00668
:10037000FFF7B2FF74E000F091F802213948FFF76F
:10038000ABFF01213748FFF7A9FF04213548FFF7EC
:10039000A3FF01210920C006FFF7A0FF60E000F0E5
:1003A00063F8012109030920C006FFF797FF012127
:1003B00049032C48FFF790FF012189032948FFF7E3
:1003C0008DFF0121C9032748FFF788FF48E000F0AF
:1003D0004BF8012109030920C006FFF77FFF012127
:1003E00049032048FFF77AFF012189031D48FFF7E1
:1003F00075FF0121C9031B48FFF76EFF30E000F0D5
:1004000033F8012109030920C006FFF765FF012128
:1004100049031448FFF762FF012189031148FFF7E0
:100420005BFF0121C9030F48FFF756FF18E000F0FA
:100430001BF8012109030920C006FFF74DFF012128
:1004400049030848FFF74AFF012189030548FFF7E0
:1004500043FF0121C9030348FFF740FF00E000BF4D
:1004600000BF10BD0008004810B508210A48FFF77A
:1004700035FF02210848FFF72FFF01210648FFF74B
:100480002BFF04210448FFF729FF01210920C006A2
:10049000FFF722FF10BD00000008004810B508213A
:1004A0000C48FFF719FF012109030920C006FFF7D7
:1004B00013FF012149030748FFF70EFF01218903BC
:1004C0000448FFF70BFF0121C9030248FFF704FFAF
:1004D00010BD00000008004800BFFEE770470000A4
:1004E00000218278002A27D0184A03231B02D21841
:1004F00003789B109B00D15802789207D30EFF22FD
:100500009A400B469343194642789207120E03789D
:100510009B07DB0E9A4011430C4A03231B02D2189F
:1005200003789B109B00D1500278D306DB0E01228A
:100530009A40064B1A6007E00278D306DB0E0122D0
:100540009A40024B80331A607047000000E100E0DF
:1005500010B5002819DA1A4A03071B0F083B9B083D
:100560009B00D2588307DC0EFF23A3409A438B07DE
:100570001B0E8407E40EA3401A43114B0407240FFB
:10058000083CA408A4001A5118E00E4A03231B02D9
:10059000D21883089B00D2588307DC0EFF23A340A8
:1005A0009A438B071B0E8407E40EA3401A43054BA6
:1005B000032424021B198408A4001A5110BD000052
:1005C0001CED00E000E100E008B51B216846017069
:1005D0000021417001218170FFF782FF08BD704743
:1005E000002905D0054A52690243044B5A6104E0D0
:1005F000024A52698243014B5A617047001002401F
:10060000002905D0054A92690243044B9A6104E02F
:10061000024A92698243014B9A617047001002407E
:1006200010B501210F204004FFF7DAFF10BD0000D4
:10063000FEB504460025002600200190009000270A
:10064000504840680C2108400546002D04D0042D78
:1006500005D0082D28D105E04B48206027E04A4806
:10066000206024E0474840680F218904084006467E
:10067000444840680121090408400190B00C861CE0
:100680000198002803D14148704320600BE03D48A9
:10069000C06A0007000F401C00903B480099FFF71C
:1006A00041FD7043206002E03748206000BF00BF7A
:1006B00034484068F021084005462D093448475D1C
:1006C0002068F84060602F48406807210902084010
:1006D00005462D0A2E48475D6068F840A06029480D
:1006E000006BFF2101310840884202D02948E060B8
:1006F0000DE024484068012189030840884203D066
:10070000A0684008E06002E0A0688008E0601D4842
:10071000006B40210840402802D01F48206102E0C1
:100720000120C00320611748006B102108401028E9
:1007300002D01548606101E0206860611148006BDB
:100740008007800F002802D1A068A06119E00D4841
:10075000006B8007800F012802D12068A06110E0A3
:100760000848006B8007800F022802D18003A06137
:1007700007E00448006B8007800F032801D102487E
:10078000A061FEBD0010024000127A0000093D0089
:1007900000000020809FD5001280000010B50446A4
:1007A000230001F0E6F90A45060D141B2229303713
:1007B0003E450120FFF798FD092000F093F838E04E
:1007C0000120FFF791FD072000F08CF831E00120B7
:1007D000FFF78AFD082000F085F82AE00220FFF7E5
:1007E00083FD032000F028F823E00220FFF77CFDC2
:1007F000012000F021F81CE00220FFF775FD022027
:1008000000F01AF815E00320FFF76EFD062000F057
:100810003FF80EE00320FFF767FD042000F038F8F2
:1008200007E00320FFF760FD052000F031F800E04D
:1008300000BF00BF10BD000010B50446012C04D05D
:10084000022C0ED0032C1ED117E0012109030F4802
:10085000FFF744FD0121C9020920C006FFF73EFD54
:1008600012E0012109030948FFF738FD0121C902FF
:100870000920C006FFF730FD06E001210903034807
:10088000FFF72AFD00E000BF00BF10BD00040048D4
:1008900010B50446042C04D0052C0DD0062C1CD118
:1008A00015E0012149020E48FFF718FDFF21013133
:1008B0000B48FFF713FD11E0012149020848FFF73B
:1008C0000DFDFF2101310648FFF706FD06E001217D
:1008D00049020348FFF700FD00E000BF00BF10BD64
:1008E0000004004810B50446072C04D0082C0DD095
:1008F000092C1CD115E00121C9020E48FFF7EEFCBE
:1009000002210920C006FFF7E9FC11E00121C9021C
:100910000848FFF7E3FC02210920C006FFF7DCFCD2
:1009200006E00121C9020348FFF7D6FC00E000BF42
:1009300000BF10BD00040048704700000CB5002047
:1009400001900090314800680121090408432F49B3
:10095000086000BF2D48006801214904084000904C
:100960000198401C01900098002804D1052109023B
:1009700001988842EED125480068012149040840C9
:10098000002802D00120009001E000200090009893
:10099000012839D111201E4908601C4840681B49B4
:1009A0004860084640684860084640683F2109049E
:1009B00088431649486008464068112109040843E5
:1009C00012494860084600680121090608430F499A
:1009D000086000BF0D480068012149060840002852
:1009E000F8D00A48406880088000084948600846F6
:1009F0004068022108430549486000BF0348406839
:100A00000C2108400828F9D10CBD0000001002405C
:100A10000020024010B57D21C9000C480068FFF796
:100A200081FB0446601E0A49884200D90CE0601E22
:100A3000084948610321081FFFF78AFD0020054986
:100A400088610720086100BF10BD00001000002071
:100A5000FFFFFF0000E000E00B4800680B49884200
:100A600005D209480068401C0749086002E00020E0
:100A70000549086006480088002804D0044800881A
:100A8000401E03490880704744000020FFFF8F008C
:100A90004800002010B51B4800680121084319498F
:100AA00008600846406818490840164948600846EA
:100AB000006816490840134908600846006801218B
:100AC000890488430F490860084640683F210904AB
:100AD00088430C4948600846C06A00090001C862A2
:100AE0000846006BFF2154318843064908630846D5
:100AF000406B40084000486300208860FFF71EFFFD
:100B000010BD0000001002400CB8FFF8FFFFF6FE19
:100B100010B50C490C4800F076F8002806D00B48B8
:100B200001F004FA0749084800F058F80849064857
:100B300000F069F8002803D00549034800F04EF89A
:100B400010BD0000050105000038014054080020D8
:100B50000601060000B589B001214804FFF740FDF9
:100B600001218803FFF74CFD01220921C806FFF788
:100B700091FB01220A210920C006FFF78BFB03200D
:100B800040020790022108A8017003214170002152
:100B900081700121C17007A90920C006FFF732FB4F
:100BA000E120400201900020029003900490069002
:100BB0000C20059001A9074800F06EF801220649B3
:100BC000044800F047F80121024800F010F809B08D
:100BD00000BD0000003801400501050010B50023EC
:100BE00000220B0C01249C402246026210BD002909
:100BF00004D0026801231A43026003E0026852082D
:100C000052000260704770B502460B460024002176
:100C1000002500201E04350ED9B201268E40314633
:100C2000012D02D11668314006E0022D02D156682E
:100C3000314001E0966831401C0C0126A640344644
:100C4000D6693440002903D0002C01D0012000E0F7
:100C5000002070BDF8B5034600240026009600254C
:100C6000002018460E04340ECEB200960127009ED6
:100C7000B7403D46022C01D1001D02E0032C00D1FB
:100C80000830002A03D006682E43066002E006689A
:100C9000AE430660F8BD0000F0B589B005460E46CB
:100CA00000240020089000BF00BF286840084000D2
:100CB00028606C6803210903204688430446B06815
:100CC00004436C602C682F480440F1687068084346
:100CD0003169084304432C60AC68032109022046B3
:100CE0008843044670690443AC606846FFF7A0FC83
:100CF0002548854202D10698089001E002980890A4
:100D000028680121C9030840002809D03268510031
:100D10001923089A5A431046FFF704FA074608E0D9
:100D2000326891001923089A5A431046FFF7FAF9DE
:100D3000074664213846FFF7F5F9040120096421CC
:100D40004843381A079028680121C9030840002841
:100D50000AD00799C900084632306421FFF7E2F94A
:100D60004007400F044309E0079909010846323063
:100D70006421FFF7D7F90007000F0443AC8109B0E5
:100D8000F0BD0000F3E9FFFF0038014070B50546F3
:100D90000C462B0000F0EDFE1FF28995A1ADB9C500
:100DA000D1DDF6F0111D2935414D5965717DEFEE0C
:100DB000EDECEBEAE9E8E7E6F200002C06D00220D1
:100DC000FFF792FA012000F02BFB01E000F0A6F9FA
:100DD00069E1002C06D00220FFF786FA022000F01D
:100DE0001FFB01E000F09AF95DE1002C06D0022023
:100DF000FFF77AFA032000F013FB01E000F08EF910
:100E000051E1002C06D00220FFF76EFA042000F01A
:100E100007FB01E000F082F945E1002C06D002203A
:100E2000FFF762FA052000F0FBFA01E000F076F926
:100E300039E1002C06D00220FFF756FA062000F018
:100E400093FC01E000F0C0F92DE1002C06D0022057
:100E5000FFF74AFA072000F087FC01E000F0B4F940
:100E600021E1002C06D00220FFF73EFA082000F016
:100E70007BFC01E000F0A8F915E1002C06D002206F
:100E8000FFF732FA092000F06FFC01E000F09CF956
:100E900009E1002C06D00220FFF726FA0A2000F014
:100EA00063FC01E000F090F9FDE0002C06D0012089
:100EB000FFF71AFA152000F049FB01E000F04CF9A9
:100EC000F1E0002C06D00120FFF70EFA162000F00A
:100ED0003DFB01E000F040F9E5E0002C06D00120E8
:100EE000FFF702FA172000F031FB01E000F034F9BF
:100EF000D9E0002C06D00120FFF7F6F9182000F009
:100F000025FB01E000F028F9CDE0002C06D00120FF
:100F1000FFF7EAF9192000F019FB01E000F01CF9D5
:100F2000C1E0002C06D00120FFF7DEF91A2000F006
:100F30009BFB01E000F02CF9B5E0002C06D001206D
:100F4000FFF7D2F91B2000F08FFB01E000F020F941
:100F5000A9E0002C13D00120FFF7C6F91C2000F0F7
:100F600083FB0EE092E085E078E06BE05EE051E02C
:100F700044E037E02AE01DE010E003E092E000F0FA
:100F800007F990E0002C06D00120FFF7ADF91D20F5
:100F900000F06AFB01E000F0FBF884E0002C06D0D2
:100FA0000120FFF7A1F91E2000F05EFB01E000F038
:100FB000EFF878E0002C06D00320FFF795F90B201E
:100FC00000F020F901E000F071F86CE0002C06D090
:100FD0000320FFF789F90C2000F014F901E000F07C
:100FE00065F860E0002C06D00320FFF77DF90D20A6
:100FF00000F008F901E000F059F854E0002C06D0A8
:101000000320FFF771F90E2000F0FCF801E000F07A
:101010004DF848E0002C06D00320FFF765F90F20BB
:1010200000F0F0F801E000F041F83CE0002C06D0C0
:101030000320FFF759F9102000F05EF901E000F0FD
:101040004DF830E0002C06D00320FFF74DF91120B9
:1010500000F052F901E000F041F824E0002C06D045
:101060000320FFF741F9122000F046F901E000F0FB
:1010700035F818E0002C06D00320FFF735F91320CF
:1010800000F03AF901E000F029F80CE0002C06D05D
:101090000320FFF729F9142000F02EF901E000F0F9
:1010A0001DF800E000BF00BF70BD000010B580213A
:1010B0000948FFF713F910210748FFF70DF9082138
:1010C0000548FFF709F920210348FFF707F94021F8
:1010D0000148FFF701F910BD0004004810B50121D7
:1010E000C9030920C006FFF7F9F8012109030948DF
:1010F000FFF7F2F804210848FFF7EEF80121C902D2
:101100000448FFF7EBF8012189020248FFF7E4F8F1
:1011100010BD000000080048000C004810B5042174
:101120000920C006FFF7DAF8012149020948FFF754
:10113000D3F8FF2101310748FFF7CEF8FF21013135
:101140000920C006FFF7CAF808210920C006FFF7EA
:10115000C3F810BD0008004810B510210920C006D2
:10116000FFF7BCF880210920C006FFF7B5F8102171
:101170000648FFF7B1F840210920C006FFF7AEF896
:1011800020210920C006FFF7A7F810BD000800487D
:1011900010B5012189020A48FFF7A0F8012108488B
:1011A000FFF79AF820210748FFF796F80221044834
:1011B000FFF794F804210248FFF78EF810BD0000F5
:1011C000000400480008004810B5012149030B48FD
:1011D000FFF784F840210A48FFF77EF8802108488D
:1011E000FFF77AF80121C9030448FFF777F80121D6
:1011F00089030248FFF770F810BD000000040048A2
:101200000008004810B5044620460B38030000F0E3
:10121000B0FC05432E0419586D0080213548FFF7B6
:101220005DF810213348FFF759F808213148FFF7DE
:1012300053F820212F48FFF751F840212D48FFF7A0
:101240004DF854E080212B48FFF748F81021294839
:10125000FFF744F808212748FFF740F820212548E8
:10126000FFF73CF840212348FFF736F83FE08021A4
:101270002048FFF733F810211E48FFF72DF808210A
:101280001C48FFF72BF820211A48FFF725F84021CA
:101290001848FFF721F82AE080211648FFF71EF8CA
:1012A00010211448FFF718F808211248FFF716F824
:1012B00020211048FFF710F840210E48FFF70EF8E4
:1012C00015E080210B48FFF707F810210948FFF7C8
:1012D00003F808210748FEF7FFFF20210548FEF725
:1012E000FDFF40210348FEF7F7FF00E000BF00BF0D
:1012F00010BD00000004004810B504462046103818
:10130000030000F036FC055238041E6C86000121F3
:10131000C9030920C006FEF7E1FF012109033E4889
:10132000FEF7DCFF04213D48FEF7D6FF0121C9028C
:101330003948FEF7D3FF012189023748FEF7CEFF77
:1013400068E00121C9030920C006FEF7C7FF01219B
:1013500009033148FEF7C2FF04213048FEF7BEFF03
:101360000121C9022C48FEF7B9FF012189022A4850
:10137000FEF7B2FF4EE00121C9030920C006FEF7C7
:10138000ADFF012109032448FEF7A6FF04212348ED
:10139000FEF7A4FF0121C9021F48FEF79DFF0121AE
:1013A00089021D48FEF798FF34E00121C903092096
:1013B000C006FEF793FF012109031748FEF78CFFD3
:1013C00004211648FEF78AFF0121C9021248FEF7E0
:1013D00083FF012189021048FEF780FF1AE00121F6
:1013E000C9030920C006FEF777FF012109030A4857
:1013F000FEF772FF04210948FEF76EFF0121C902C2
:101400000548FEF76BFF012189020348FEF764FFE0
:1014100000E000BF00BF10BD00080048000C0048FD
:1014200010B50446230000F0A4FB068B553A041FB8
:10143000708B04210920C006FEF750FF01214902EC
:101440004148FEF74BFFFF2101313F48FEF744FFC3
:10145000FF2101310920C006FEF740FF08210920C5
:10146000C006FEF73BFF6CE004210920C006FEF732
:1014700035FF012149023448FEF730FFFF210131D9
:101480003148FEF72BFFFF2101310920C006FEF78E
:1014900025FF08210920C006FEF71EFF51E00421A8
:1014A0000920C006FEF71AFF012149022648FEF76F
:1014B00013FFFF2101312448FEF710FFFF21013106
:1014C0000920C006FEF708FF08210920C006FEF724
:1014D00003FF36E004210920C006FEF7FFFE0121CC
:1014E00049021948FEF7F8FEFF2101311648FEF7C0
:1014F000F5FEFF2101310920C006FEF7EDFE0821AF
:101500000920C006FEF7EAFE1BE004210920C00600
:10151000FEF7E2FE012149020B48FEF7DDFEFF2146
:1015200001310948FEF7D8FEFF2101310920C0062C
:10153000FEF7D4FE08210920C006FEF7CDFE00E02C
:1015400000BF00BF10BD00000008004810B50446F1
:1015500020461538030000F00CFB054F36041D68CB
:10156000810010210920C006FEF7B8FE8021092065
:10157000C006FEF7B3FE10213A48FEF7ADFE40214B
:101580000920C006FEF7AAFE20210920C006FEF7AA
:10159000A5FE64E010210920C006FEF79FFE802111
:1015A0000920C006FEF79AFE10212E48FEF796FE8F
:1015B00040210920C006FEF791FE20210920C00627
:1015C000FEF78AFE4BE010210920C006FEF786FEDA
:1015D00080210920C006FEF77FFE10212148FEF77A
:1015E0007DFE40210920C006FEF776FE202109205D
:1015F000C006FEF771FE32E010210920C006FEF79A
:101600006DFE80210920C006FEF766FE10211548F8
:10161000FEF764FE40210920C006FEF75DFE202192
:101620000920C006FEF75AFE19E010210920C00665
:10163000FEF752FE80210920C006FEF74DFE102164
:101640000848FEF749FE40210920C006FEF746FE85
:1016500020210920C006FEF73FFE00E000BF00BFCA
:1016600010BD00000008004810B5044620461A3896
:10167000030000F07EFA054630041A5C7200012176
:1016800089023748FEF72AFE01213548FEF726FE7B
:1016900020213448FEF720FE02213148FEF71EFECD
:1016A00004212F48FEF71AFE58E0012189022C4838
:1016B000FEF714FE01212A48FEF710FE20212948DA
:1016C000FEF70CFE02212648FEF708FE04212448FE
:1016D000FEF702FE42E0012189022148FEF7FEFDED
:1016E00001211F48FEF7F8FD20211E48FEF7F6FDF8
:1016F00002211B48FEF7F0FD04211948FEF7ECFD1E
:101700002CE0012189021648FEF7E8FD012114486A
:10171000FEF7E2FD20211348FEF7E0FD022110480C
:10172000FEF7DAFD04210E48FEF7D8FD16E0012190
:1017300089020B48FEF7D0FD01210948FEF7CCFDD8
:1017400020210848FEF7C8FD02210548FEF7C6FD26
:1017500004210348FEF7C0FD00E000BF00BF10BD3C
:10176000000400480008004810B50446A01F03000C
:1017700000F0FFF9054C34041C647C00012149038E
:101780003C48FEF7ABFD40213B48FEF7A7FD80211A
:101790003948FEF7A1FD0121C9033648FEF79EFD39
:1017A000012189033348FEF799FD60E001214903D7
:1017B0003048FEF793FD40212F48FEF78FFD802132
:1017C0002D48FEF78BFD0121C9032A48FEF786FD4F
:1017D000012189032748FEF77FFD48E001214903E5
:1017E0002448FEF77BFD40212348FEF775FD80214C
:1017F0002148FEF773FD0121C9031E48FEF76CFD69
:10180000012189031B48FEF767FD30E001214903F0
:101810001848FEF763FD40211748FEF75DFD802163
:101820001548FEF75BFD0121C9031248FEF754FD80
:10183000012189030F48FEF751FD18E001214903FA
:101840000C48FEF749FD40210B48FEF745FD80217D
:101850000948FEF741FD0121C9030648FEF73EFD98
:10186000012189030348FEF737FD00E000BF00BFF8
:1018700010BD0000000400480008004810B53548BD
:101880004078002800D110BD33480188334A881AB7
:1018900091422CD006DC32480818002809D00128D3
:1018A0004BD115E0FF38013800282CD0012844D155
:1018B00038E0294800792B49087001202A4908702E
:1018C0002A480078002802D101202849087035E014
:1018D00021480079234908700020234908702348D3
:1018E0000078002802D101202049087026E01A481B
:1018F00000791F4908701F480078002802D1012094
:101900001C4908701AE0144800791B49087001202E
:101910001A4908701A480078002802D10120184995
:1019200008700BE00220154908701548007800285F
:1019300002D101201249087000E000BF00BF8121E0
:1019400089000548FEF70BFC02480021018000BF1A
:1019500099E700002E0000207C08002001F2000022
:10196000FF0EFFFF38000020390000203A00002061
:101970003B0000203C0000203D0000203E000020F5
:101980003F00002008B5002000906A486A4908809E
:10199000CDE06A484078012800D1C9E06648008857
:1019A000002803D1012065494870C1E00121684643
:1019B00000F0CFFA002800D1BAE0604800780300B8
:1019C00000F0D7F805041528496FA3006846007891
:1019D000552808D159480078401C58490870002003
:1019E0005749088002E00120544948709EE068464B
:1019F0000078AA2808D151480078401C4F49087047
:101A000000204F49088004E001204C494870002024
:101A100008708BE068460078F0280ADD6846007898
:101A200000024849088045480078401C4349087036
:101A300010E0812189004448FEF791FB00204149D4
:101A40000880424908803E49088001203B4948708F
:101A5000002008706AE03B4800886946097808431E
:101A6000384908800846008837490880334800789C
:101A7000401C3249087034480088002810D1812168
:101A800089003148FEF76BFB00202E4908802F4962
:101A900008802B49088001202849487000200870E0
:101AA00044E06846007800280FDD68460078CC28BE
:101AB0000BD068460178224802880088401C204BE1
:101AC00018802148001D81541EE068460078CC280B
:101AD0000BD100201B4908801C4908801849088048
:101AE00016490870012048700EE0812189001648CF
:101AF000FEF735FB002013490880114908800120BA
:101B00000E4948700020087010E0812189000E48BD
:101B1000FEF725FB00200B4908800C490880084986
:101B20000880064908700120487000BF00BF30E7F8
:101B300000BF08BDB80B0000480000202E000020A8
:101B400036000020320000207C08002034000020F5
:101B500000B5A1B0802101A8FEF701FBAA216846CB
:101B60000171BB214171022101A800F009FA21B0E5
:101B700000BD30B47446641E2578641CAB4204D3A7
:101B8000635D5B00E31830BC18471D46F8E702E0D0
:101B900008C8121F08C1002AFAD1704770470020F8
:101BA00001E001C1121F002AFBD1704710B50446A5
:101BB0007D21C9006143084600F001F810BD70B5F1
:101BC000044600253021614308460721FEF7AAFAA2
:101BD000064600BF681C0546B04200D970BDF9E753
:101BE00010B5FEF71DFDFEF7DFFA00F007F800F074
:101BF00033F800F073F800F0B1F810BD10B508210B
:101C00001448FEF769FB02211248FEF765FB01212B
:101C10001048FEF761FB04210E48FEF75FFB01212F
:101C20000920C006FEF758FB012109030920C00660
:101C3000FEF752FB012149030648FEF74DFB012147
:101C400089030448FEF74AFB0121C9030148FEF756
:101C500043FB10BD0008004810B504210920C00650
:101C6000FEF73CFB012149021A48FEF735FBFF2134
:101C700001311848FEF730FBFF2101310920C00671
:101C8000FEF72CFB08210920C006FEF725FB0121E9
:101C900049031148FEF722FB40210E48FEF71CFBCA
:101CA00080210C48FEF718FB0121C9030A48FEF702
:101CB00015FB012189030848FEF70EFB01210903EA
:101CC0000548FEF70BFB0121C9020920C006FEF7FB
:101CD00005FB10BD000800480004004810B5802135
:101CE0001B48FEF7FBFA10211948FEF7F5FA082108
:101CF0001748FEF7F1FA20211548FEF7EFFA4021C8
:101D00001348FEF7E9FA0121C9030920C006FEF7CE
:101D1000E5FA012109030F48FEF7DEFA04210E4817
:101D2000FEF7DAFA0121C9020A48FEF7D7FA0121C3
:101D300089020848FEF7D0FA012149020448FEF75B
:101D4000CDFAFF2101310248FEF7C8FA10BD0000AC
:101D50000004004800080048000C004810B510219D
:101D60000920C006FEF7BAFA80210920C006FEF756
:101D7000B3FA10211648FEF7AFFA40210920C00639
:101D8000FEF7ACFA20210920C006FEF7A5FA0121D2
:101D900089021048FEF7A2FA01210E48FEF79CFACC
:101DA00020210B48FEF798FA02210A48FEF796FA1E
:101DB00004210848FEF790FA0121C9020548FEF700
:101DC0008DFA02210920C006FEF788FA10BD000036
:101DD0000008004800040048FEF71CFEFFF700FF63
:101DE00000F054F901201B49087014E00121194842
:101DF0000078FEF7CBFFC820FFF7D8FE002115487A
:101E00000078FEF7C3FF3220FFF7D0FE11480078BC
:101E1000401C104908700F4800780B28E6DBFEF7DD
:101E20005FFA3220FFF7C2FE01210846FEF7AEFF3F
:101E30006420FFF7BBFE0120FEF7B0FC08E0FFF7CF
:101E4000A1FDFFF71BFDFEF7A7F90520FFF7B7FE81
:101E5000F5E700004000002010B50C48007801288C
:101E600012D10B48007800280EDD094800781F28A1
:101E70000ADA0848017806480078FEF787FF002054
:101E800002490870FFF764FE10BD00003A00002010
:101E9000380000203900002010B50B4800780128D8
:101EA00010D10A4800780A280CDA0848007800287F
:101EB00008DD06480078FEF771FC00200249087032
:101EC000FFF746FE10BD00003C0000203B00002054
:101ED00010B513480078012820D112480078012855
:101EE00011D111480078002818DD0F480078092822
:101EF00014DA0D480078FEF7F7F900200849087059
:101F0000FFF726FE0AE007480078022806D1FEF710
:101F1000E7F9002002490870FFF71AFE10BD000023
:101F20003F0000203E0000203D00002030B5044668
:101F30000025ED430AE000F099F80546681C0028EA
:101F400000D104E0E9B2606800F06AF8F3E700BF8E
:101F500030BDF8B504460D4626460AE000F020F8EC
:101F60000746781C002800D105E03770761C6D1EEE
:101F700000BF002DF2D100BF301B00900098F8BDCB
:101F800070B503460C4600261D4604E0287800F094
:101F900085F86D1C641E002CF8D1EE1A304670BD19
:101FA0000020C04308494988074A128891420AD054
:101FB00005494988054A505C03494988491C8905F7
:101FC000890D014A518070474C0400204C000020CC
:101FD00010B50D4C0D480E4948600E488860084603
:101FE0000460012189020948FEF7B9F800200A4976
:101FF00008804880012189020648FEF7B0F80020D9
:1020000006490880488010BD240000204C000020B4
:1020100054080020500400204C04002050080020E8
:10202000012292028218128881540122920282189F
:102030001288521C9205920D01239B02C3181A802C
:10204000012292028218128801239B02C3185B8826
:102050009A420AD10122920282185288521C920599
:10206000920D01239B02C3185A8070470020C04381
:102070000549C96920221140002903D002492031B5
:102080008988C8B2704700000038014010B5FEF7DB
:1020900061FDFEF799FAFFF79BFF10BD014600BFF7
:1020A0000548C069802210400028F9D0024820303D
:1020B000018101207047000000380140DC20000849
:1020C000000000204C0000008E1B000828210008A2
:1020D0004C000020440E00009E1B00080000000081
:1020E000010203040102030406070809006CDC0274
:1020F00000000000000000000102030406070809B8
:10210000003801401B00000000000000000000003B
:1021100000000000000000000000000000000000BF
:0821200000000000B80B0000F4
:04000005080000B936
:00000001FF
